{
  "address": "0x4d68E1899eE4874F42e08DA0Ed8e796C213B74be",
  "abi": [
    {
      "inputs": [
        {
          "internalType": "address",
          "name": "_debtToken",
          "type": "address"
        },
        {
          "internalType": "address",
          "name": "_reserveToken",
          "type": "address"
        },
        {
          "internalType": "uint256",
          "name": "_buyFee",
          "type": "uint256"
        },
        {
          "internalType": "uint256",
          "name": "_sellFee",
          "type": "uint256"
        },
        {
          "internalType": "address",
          "name": "_treasury",
          "type": "address"
        }
      ],
      "stateMutability": "nonpayable",
      "type": "constructor"
    },
    {
      "anonymous": false,
      "inputs": [
        {
          "indexed": false,
          "internalType": "uint256",
          "name": "fee",
          "type": "uint256"
        }
      ],
      "name": "BuyFeeUpdated",
      "type": "event"
    },
    {
      "anonymous": false,
      "inputs": [
        {
          "indexed": false,
          "internalType": "uint256",
          "name": "amount",
          "type": "uint256"
        }
      ],
      "name": "DebtTokensWithdrawn",
      "type": "event"
    },
    {
      "anonymous": false,
      "inputs": [
        {
          "indexed": false,
          "internalType": "uint256",
          "name": "fees",
          "type": "uint256"
        }
      ],
      "name": "FeesHarvested",
      "type": "event"
    },
    {
      "anonymous": false,
      "inputs": [
        {
          "indexed": true,
          "internalType": "address",
          "name": "previousOwner",
          "type": "address"
        },
        {
          "indexed": true,
          "internalType": "address",
          "name": "newOwner",
          "type": "address"
        }
      ],
      "name": "OwnershipTransferred",
      "type": "event"
    },
    {
      "anonymous": false,
      "inputs": [
        {
          "indexed": false,
          "internalType": "uint256",
          "name": "amount",
          "type": "uint256"
        }
      ],
      "name": "ReservesBought",
      "type": "event"
    },
    {
      "anonymous": false,
      "inputs": [
        {
          "indexed": false,
          "internalType": "uint256",
          "name": "amount",
          "type": "uint256"
        }
      ],
      "name": "ReservesSold",
      "type": "event"
    },
    {
      "anonymous": false,
      "inputs": [
        {
          "indexed": false,
          "internalType": "uint256",
          "name": "amount",
          "type": "uint256"
        }
      ],
      "name": "ReservesWithdrawn",
      "type": "event"
    },
    {
      "anonymous": false,
      "inputs": [
        {
          "indexed": false,
          "internalType": "uint256",
          "name": "fee",
          "type": "uint256"
        }
      ],
      "name": "SellFeeUpdated",
      "type": "event"
    },
    {
      "inputs": [],
      "name": "FEE_PRECISION",
      "outputs": [
        {
          "internalType": "uint256",
          "name": "",
          "type": "uint256"
        }
      ],
      "stateMutability": "view",
      "type": "function"
    },
    {
      "inputs": [
        {
          "internalType": "uint256",
          "name": "_amount",
          "type": "uint256"
        }
      ],
      "name": "buy",
      "outputs": [],
      "stateMutability": "nonpayable",
      "type": "function"
    },
    {
      "inputs": [],
      "name": "buyFee",
      "outputs": [
        {
          "internalType": "uint256",
          "name": "",
          "type": "uint256"
        }
      ],
      "stateMutability": "view",
      "type": "function"
    },
    {
      "inputs": [],
      "name": "buyFeesCollected",
      "outputs": [
        {
          "internalType": "uint256",
          "name": "",
          "type": "uint256"
        }
      ],
      "stateMutability": "view",
      "type": "function"
    },
    {
      "inputs": [],
      "name": "debtToken",
      "outputs": [
        {
          "internalType": "contract IERC20Metadata",
          "name": "",
          "type": "address"
        }
      ],
      "stateMutability": "view",
      "type": "function"
    },
    {
      "inputs": [],
      "name": "harvestFees",
      "outputs": [],
      "stateMutability": "nonpayable",
      "type": "function"
    },
    {
      "inputs": [],
      "name": "owner",
      "outputs": [
        {
          "internalType": "address",
          "name": "",
          "type": "address"
        }
      ],
      "stateMutability": "view",
      "type": "function"
    },
    {
      "inputs": [
        {
          "internalType": "address",
          "name": "_token",
          "type": "address"
        },
        {
          "internalType": "uint256",
          "name": "_amount",
          "type": "uint256"
        }
      ],
      "name": "recoverERC20",
      "outputs": [],
      "stateMutability": "nonpayable",
      "type": "function"
    },
    {
      "inputs": [],
      "name": "renounceOwnership",
      "outputs": [],
      "stateMutability": "nonpayable",
      "type": "function"
    },
    {
      "inputs": [],
      "name": "reserveToken",
      "outputs": [
        {
          "internalType": "contract IERC20Metadata",
          "name": "",
          "type": "address"
        }
      ],
      "stateMutability": "view",
      "type": "function"
    },
    {
      "inputs": [
        {
          "internalType": "uint256",
          "name": "_amount",
          "type": "uint256"
        }
      ],
      "name": "sell",
      "outputs": [],
      "stateMutability": "nonpayable",
      "type": "function"
    },
    {
      "inputs": [],
      "name": "sellFee",
      "outputs": [
        {
          "internalType": "uint256",
          "name": "",
          "type": "uint256"
        }
      ],
      "stateMutability": "view",
      "type": "function"
    },
    {
      "inputs": [],
      "name": "sellFeesCollected",
      "outputs": [
        {
          "internalType": "uint256",
          "name": "",
          "type": "uint256"
        }
      ],
      "stateMutability": "view",
      "type": "function"
    },
    {
      "inputs": [
        {
          "internalType": "uint256",
          "name": "_buyFee",
          "type": "uint256"
        }
      ],
      "name": "setBuyFee",
      "outputs": [],
      "stateMutability": "nonpayable",
      "type": "function"
    },
    {
      "inputs": [
        {
          "internalType": "uint256",
          "name": "_sellFee",
          "type": "uint256"
        }
      ],
      "name": "setSellFee",
      "outputs": [],
      "stateMutability": "nonpayable",
      "type": "function"
    },
    {
      "inputs": [
        {
          "internalType": "address",
          "name": "newOwner",
          "type": "address"
        }
      ],
      "name": "transferOwnership",
      "outputs": [],
      "stateMutability": "nonpayable",
      "type": "function"
    },
    {
      "inputs": [],
      "name": "treasury",
      "outputs": [
        {
          "internalType": "address",
          "name": "",
          "type": "address"
        }
      ],
      "stateMutability": "view",
      "type": "function"
    },
    {
      "inputs": [
        {
          "internalType": "uint256",
          "name": "_amount",
          "type": "uint256"
        }
      ],
      "name": "withdrawDebtTokens",
      "outputs": [],
      "stateMutability": "nonpayable",
      "type": "function"
    },
    {
      "inputs": [
        {
          "internalType": "uint256",
          "name": "_amount",
          "type": "uint256"
        }
      ],
      "name": "withdrawReserves",
      "outputs": [],
      "stateMutability": "nonpayable",
      "type": "function"
    }
  ],
  "transactionHash": "0x3a4296f0c244d22f0894d8ef05a086b9277cb55eb7750dd301ac18d449651deb",
  "args": [
    "0x8A4B6468170fF16EDF956172964C474B8349134E",
    "0x5592EC0cfb4dbc12D3aB100b257153436a1f0FEa",
    "600",
    "600",
    "0x403898Ddff450b89e2D96BDDcf763541655FDE8B"
  ],
  "numDeployments": 1,
  "solcInputHash": "77cd55a4f4109bc94cff95c2ae08a719",
  "bytecode": "0x60c06040523480156200001157600080fd5b506040516200160738038062001607833981016040819052620000349162000307565b6200003f336200029a565b6001600160a01b0385166200008c5760405162461bcd60e51b815260206004820152600e60248201526d183c18103232b13a103a37b5b2b760911b60448201526064015b60405180910390fd5b6001600160a01b038416620000d85760405162461bcd60e51b8152602060048201526011602482015270183c18103932b9b2b93b32903a37b5b2b760791b604482015260640162000083565b6001600160a01b0381166200011f5760405162461bcd60e51b815260206004820152600c60248201526b30783020747265617375727960a01b604482015260640162000083565b836001600160a01b031663313ce5676040518163ffffffff1660e01b815260040160206040518083038186803b1580156200015957600080fd5b505afa1580156200016e573d6000803e3d6000fd5b505050506040513d601f19601f8201168201806040525081019062000194919062000365565b60ff16856001600160a01b031663313ce5676040518163ffffffff1660e01b815260040160206040518083038186803b158015620001d157600080fd5b505afa158015620001e6573d6000803e3d6000fd5b505050506040513d601f19601f820116820180604052508101906200020c919062000365565b60ff1614620002515760405162461bcd60e51b815260206004820152601060248201526f0c8cac6d2dac2d840dad2e6dac2e8c6d60831b604482015260640162000083565b606094851b6001600160601b03199081166080529390941b90921660a052600155600255600580546001600160a01b0319166001600160a01b0390921691909117905562000391565b600080546001600160a01b038381166001600160a01b0319831681178455604051919092169283917f8be0079c531659141344cd1fd0a4f28419497f9722a3daafe3b4186f6b6457e09190a35050565b80516001600160a01b03811681146200030257600080fd5b919050565b600080600080600060a086880312156200032057600080fd5b6200032b86620002ea565b94506200033b60208701620002ea565b935060408601519250606086015191506200035960808701620002ea565b90509295509295909350565b6000602082840312156200037857600080fd5b815160ff811681146200038a57600080fd5b9392505050565b60805160601c60a05160601c6111f6620004116000396000818161020e01528181610386015281816105c8015281816107f101528181610962015281816109d50152610b3d0152600081816102350152818161034c015281816104b3015281816105490152818161082f015281816109970152610b0801526111f66000f3fe608060405234801561001057600080fd5b50600436106100f15760003560e01c80630cc835a3146100f6578063138cc18f1461010b5780632b14ca5614610113578063470624021461012f5780634f0a4a6a1461013857806361d027b31461014b578063715018a61461016b5780638980f11f146101735780638b4cee08146101865780638da5cb5b1461019957806398aa8c33146101a1578063999777aa146101b4578063c3a5dbb9146101bd578063d96a094a146101c6578063e4849b32146101d9578063e63a391f146101ec578063f2fde38b146101f6578063f4325d6714610209578063f8d8989814610230575b600080fd5b610109610104366004610fcb565b610257565b005b6101096102ed565b61011c60025481565b6040519081526020015b60405180910390f35b61011c60015481565b610109610146366004610fcb565b6103b3565b60055461015e906001600160a01b031681565b6040516101269190611019565b6101096104dd565b610109610181366004610f7d565b610518565b610109610194366004610fcb565b61065c565b61015e6106e2565b6101096101af366004610fcb565b6106f1565b61011c60045481565b61011c60035481565b6101096101d4366004610fcb565b610818565b6101096101e7366004610fcb565b6109be565b61011c620186a081565b610109610204366004610f43565b610b64565b61015e7f000000000000000000000000000000000000000000000000000000000000000081565b61015e7f000000000000000000000000000000000000000000000000000000000000000081565b336102606106e2565b6001600160a01b03161461028f5760405162461bcd60e51b815260040161028690611060565b60405180910390fd5b620186a081106102b15760405162461bcd60e51b8152600401610286906110c3565b60018190556040518181527f7c1445c98b278c9970d007fca6048704bcb25af7cc4a04eb56565d9a9f149ca3906020015b60405180910390a150565b6004805460038054600093849055929055907ffe8981e94194cbbb8c05bbe9e35d5efd344dea70889a90ca458fd7da74672ec961032a8284611110565b60405190815260200160405180910390a1600554610375906001600160a01b037f00000000000000000000000000000000000000000000000000000000000000008116911684610c01565b6005546103af906001600160a01b037f00000000000000000000000000000000000000000000000000000000000000008116911683610c01565b5050565b336103bc6106e2565b6001600160a01b0316146103e25760405162461bcd60e51b815260040161028690611060565b600081116104025760405162461bcd60e51b8152600401610286906110e9565b6040518181527fc3febe2f56f4f3e1780c613057720fc4ce15936341f577b4a29c5f6e5ecf4ded9060200160405180910390a16104da306001600160a01b0316638da5cb5b6040518163ffffffff1660e01b815260040160206040518083038186803b15801561047157600080fd5b505afa158015610485573d6000803e3d6000fd5b505050506040513d601f19601f820116820180604052508101906104a99190610f60565b6001600160a01b037f0000000000000000000000000000000000000000000000000000000000000000169083610c01565b50565b336104e66106e2565b6001600160a01b03161461050c5760405162461bcd60e51b815260040161028690611060565b6105166000610c69565b565b336105216106e2565b6001600160a01b0316146105475760405162461bcd60e51b815260040161028690611060565b7f00000000000000000000000000000000000000000000000000000000000000006001600160a01b0316826001600160a01b031614156105c65760405162461bcd60e51b815260206004820152601a60248201527943616e6e6f74207265636f766572206465627420746f6b656e7360301b6044820152606401610286565b7f00000000000000000000000000000000000000000000000000000000000000006001600160a01b0316826001600160a01b031614156106485760405162461bcd60e51b815260206004820152601d60248201527f43616e6e6f74207265636f766572207265736572766520746f6b656e730000006044820152606401610286565b6103af6001600160a01b0383163383610c01565b336106656106e2565b6001600160a01b03161461068b5760405162461bcd60e51b815260040161028690611060565b620186a081106106ad5760405162461bcd60e51b8152600401610286906110c3565b60028190556040518181527f495ee53ee22006979ebc689a00ed737d7c13b6419142f82dcaea4ed95ac1e780906020016102e2565b6000546001600160a01b031690565b336106fa6106e2565b6001600160a01b0316146107205760405162461bcd60e51b815260040161028690611060565b600081116107405760405162461bcd60e51b8152600401610286906110e9565b6040518181527fda224d10765aaf936e641dc5badd9b8419f4e853576ffb4e4d6b4c5876d5834d9060200160405180910390a16104da306001600160a01b0316638da5cb5b6040518163ffffffff1660e01b815260040160206040518083038186803b1580156107af57600080fd5b505afa1580156107c3573d6000803e3d6000fd5b505050506040513d601f19601f820116820180604052508101906107e79190610f60565b6001600160a01b037f0000000000000000000000000000000000000000000000000000000000000000169083610c01565b6040516370a0823160e01b81526001600160a01b037f000000000000000000000000000000000000000000000000000000000000000016906370a0823190610864903090600401611019565b60206040518083038186803b15801561087c57600080fd5b505afa158015610890573d6000803e3d6000fd5b505050506040513d601f19601f820116820180604052508101906108b49190610fe4565b6004546108c19083611110565b11156108df5760405162461bcd60e51b815260040161028690611095565b6000620186a0600154836108f3919061114a565b6108fd9190611128565b905080600360008282546109119190611110565b90915550506040518281527f8c84dea70d6c5924c2d0a8cabe7bc622d147053ebc3e4ea7cfae0e2cb2ede73f9060200160405180910390a161098a33306109588486611110565b6001600160a01b037f000000000000000000000000000000000000000000000000000000000000000016929190610cb9565b6103af6001600160a01b037f0000000000000000000000000000000000000000000000000000000000000000163384610c01565b6040516370a0823160e01b81526001600160a01b037f000000000000000000000000000000000000000000000000000000000000000016906370a0823190610a0a903090600401611019565b60206040518083038186803b158015610a2257600080fd5b505afa158015610a36573d6000803e3d6000fd5b505050506040513d601f19601f82011682018060405250810190610a5a9190610fe4565b600354610a679083611110565b1115610a855760405162461bcd60e51b815260040161028690611095565b6000620186a060025483610a99919061114a565b610aa39190611128565b90508060046000828254610ab79190611110565b90915550506040518281527f0b55ce9a826ffb08c41622efbfef98c72e863264fb183534dd8cda9c962bd0899060200160405180910390a1610b303330610afe8486611110565b6001600160a01b037f000000000000000000000000000000000000000000000000000000000000000016929190610cb9565b6103af6001600160a01b037f0000000000000000000000000000000000000000000000000000000000000000163384610c01565b33610b6d6106e2565b6001600160a01b031614610b935760405162461bcd60e51b815260040161028690611060565b6001600160a01b038116610bf85760405162461bcd60e51b815260206004820152602660248201527f4f776e61626c653a206e6577206f776e657220697320746865207a65726f206160448201526564647265737360d01b6064820152608401610286565b6104da81610c69565b6040516001600160a01b038316602482015260448101829052610c6490849063a9059cbb60e01b906064015b60408051601f198184030181529190526020810180516001600160e01b03166001600160e01b031990931692909217909152610cf7565b505050565b600080546001600160a01b038381166001600160a01b0319831681178455604051919092169283917f8be0079c531659141344cd1fd0a4f28419497f9722a3daafe3b4186f6b6457e09190a35050565b6040516001600160a01b0380851660248301528316604482015260648101829052610cf19085906323b872dd60e01b90608401610c2d565b50505050565b6000610d4c826040518060400160405280602081526020017f5361666545524332303a206c6f772d6c6576656c2063616c6c206661696c6564815250856001600160a01b0316610dc99092919063ffffffff16565b805190915015610c645780806020019051810190610d6a9190610fa9565b610c645760405162461bcd60e51b815260206004820152602a60248201527f5361666545524332303a204552433230206f7065726174696f6e20646964206e6044820152691bdd081cdd58d8d9595960b21b6064820152608401610286565b6060610dd88484600085610de2565b90505b9392505050565b606082471015610e435760405162461bcd60e51b815260206004820152602660248201527f416464726573733a20696e73756666696369656e742062616c616e636520666f6044820152651c8818d85b1b60d21b6064820152608401610286565b843b610e915760405162461bcd60e51b815260206004820152601d60248201527f416464726573733a2063616c6c20746f206e6f6e2d636f6e74726163740000006044820152606401610286565b600080866001600160a01b03168587604051610ead9190610ffd565b60006040518083038185875af1925050503d8060008114610eea576040519150601f19603f3d011682016040523d82523d6000602084013e610eef565b606091505b5091509150610eff828286610f0a565b979650505050505050565b60608315610f19575081610ddb565b825115610f295782518084602001fd5b8160405162461bcd60e51b8152600401610286919061102d565b600060208284031215610f5557600080fd5b8135610ddb816111ab565b600060208284031215610f7257600080fd5b8151610ddb816111ab565b60008060408385031215610f9057600080fd5b8235610f9b816111ab565b946020939093013593505050565b600060208284031215610fbb57600080fd5b81518015158114610ddb57600080fd5b600060208284031215610fdd57600080fd5b5035919050565b600060208284031215610ff657600080fd5b5051919050565b6000825161100f818460208701611169565b9190910192915050565b6001600160a01b0391909116815260200190565b602081526000825180602084015261104c816040850160208701611169565b601f01601f19169190910160400192915050565b6020808252818101527f4f776e61626c653a2063616c6c6572206973206e6f7420746865206f776e6572604082015260600190565b602080825260149082015273696e73756666696369656e742062616c616e636560601b604082015260600190565b6020808252600c908201526b0cccaca40e8dede40d0d2ced60a31b604082015260600190565b6020808252600d908201526c7a65726f20776974686472617760981b604082015260600190565b6000821982111561112357611123611195565b500190565b60008261114557634e487b7160e01b600052601260045260246000fd5b500490565b600081600019048311821515161561116457611164611195565b500290565b60005b8381101561118457818101518382015260200161116c565b83811115610cf15750506000910152565b634e487b7160e01b600052601160045260246000fd5b6001600160a01b03811681146104da57600080fdfea26469706673582212201adb40b4af4dca5fb6cfccdd6d5fe6891a35dc7dccfa7732faca0e8fcc6d627b64736f6c63430008060033",
  "devdoc": {
    "kind": "dev",
    "methods": {
      "buy(uint256)": {
        "params": {
          "_amount": "the amount of reserve token to buy"
        }
      },
      "owner()": {
        "details": "Returns the address of the current owner."
      },
      "recoverERC20(address,uint256)": {
        "params": {
          "_amount": "the amount to transfer",
          "_token": "the address of the token"
        }
      },
      "renounceOwnership()": {
        "details": "Leaves the contract without owner. It will not be possible to call `onlyOwner` functions anymore. Can only be called by the current owner. NOTE: Renouncing ownership will leave the contract without an owner, thereby removing any functionality that is only available to the owner."
      },
      "sell(uint256)": {
        "params": {
          "_amount": "the amount of reserve token to sell"
        }
      },
      "setBuyFee(uint256)": {
        "params": {
          "_buyFee": "the new buy fee"
        }
      },
      "setSellFee(uint256)": {
        "params": {
          "_sellFee": "the new sell fee"
        }
      },
      "transferOwnership(address)": {
        "details": "Transfers ownership of the contract to a new account (`newOwner`). Can only be called by the current owner."
      },
      "withdrawDebtTokens(uint256)": {
        "params": {
          "_amount": "the amount of debt tokens to withdraw"
        }
      },
      "withdrawReserves(uint256)": {
        "params": {
          "_amount": "the amount of reserves to withdraw"
        }
      }
    },
    "version": 1
  },
  "userdoc": {
    "kind": "user",
    "methods": {
      "buy(uint256)": {
        "notice": "buys _amount of reserveToken for debtToken. Will transfer _amount + buy fees of reserveToken from msg.sender requires approval"
      },
      "harvestFees()": {
        "notice": "Harvests fees collected to the treasury"
      },
      "recoverERC20(address,uint256)": {
        "notice": "recover tokens inadvertantly sent to this contract by transfering them to the owner"
      },
      "sell(uint256)": {
        "notice": "sells _amount of reserveToken in exchange for debtToken. Will transfer _amount + sell fees of debtToken from msg.sender requires approval"
      },
      "setBuyFee(uint256)": {
        "notice": "update the buy fee"
      },
      "setSellFee(uint256)": {
        "notice": "updates the sell fee"
      },
      "withdrawDebtTokens(uint256)": {
        "notice": "withdraw a portion of the debt tokens to the owner"
      },
      "withdrawReserves(uint256)": {
        "notice": "withdraw a portion of the reserves to the owner"
      }
    },
    "notice": "A Peg Stability Module (PSM) that allows swapping debtToken 1:1 for another stablecoin assesses a buy and sell fee on swaps. While fees are collected in both the reserve and debt tokens, they are only harvested in debt tokens.",
    "version": 1
  },
  "storageLayout": {
    "storage": [
      {
        "astId": 7,
        "contract": "contracts/PegStability.sol:PegStability",
        "label": "_owner",
        "offset": 0,
        "slot": "0",
        "type": "t_address"
      },
      {
        "astId": 4060,
        "contract": "contracts/PegStability.sol:PegStability",
        "label": "buyFee",
        "offset": 0,
        "slot": "1",
        "type": "t_uint256"
      },
      {
        "astId": 4063,
        "contract": "contracts/PegStability.sol:PegStability",
        "label": "sellFee",
        "offset": 0,
        "slot": "2",
        "type": "t_uint256"
      },
      {
        "astId": 4069,
        "contract": "contracts/PegStability.sol:PegStability",
        "label": "buyFeesCollected",
        "offset": 0,
        "slot": "3",
        "type": "t_uint256"
      },
      {
        "astId": 4071,
        "contract": "contracts/PegStability.sol:PegStability",
        "label": "sellFeesCollected",
        "offset": 0,
        "slot": "4",
        "type": "t_uint256"
      },
      {
        "astId": 4073,
        "contract": "contracts/PegStability.sol:PegStability",
        "label": "treasury",
        "offset": 0,
        "slot": "5",
        "type": "t_address"
      }
    ],
    "types": {
      "t_address": {
        "encoding": "inplace",
        "label": "address",
        "numberOfBytes": "20"
      },
      "t_uint256": {
        "encoding": "inplace",
        "label": "uint256",
        "numberOfBytes": "32"
      }
    }
  }
}