{
  "address": "0x26e0734042eFb75c9b22B49717c290bccc6807c5",
  "abi": [
    {
      "inputs": [
        {
          "internalType": "address",
          "name": "_treasury",
          "type": "address"
        }
      ],
      "stateMutability": "nonpayable",
      "type": "constructor"
    },
    {
      "anonymous": false,
      "inputs": [
        {
          "indexed": true,
          "internalType": "address",
          "name": "owner",
          "type": "address"
        },
        {
          "indexed": true,
          "internalType": "address",
          "name": "spender",
          "type": "address"
        },
        {
          "indexed": false,
          "internalType": "uint256",
          "name": "value",
          "type": "uint256"
        }
      ],
      "name": "Approval",
      "type": "event"
    },
    {
      "anonymous": false,
      "inputs": [
        {
          "indexed": false,
          "internalType": "uint256",
          "name": "fees",
          "type": "uint256"
        }
      ],
      "name": "FeesHarvested",
      "type": "event"
    },
    {
      "anonymous": false,
      "inputs": [
        {
          "indexed": false,
          "internalType": "uint256",
          "name": "newFlashFeeRate",
          "type": "uint256"
        }
      ],
      "name": "FlashFeeRateUpdated",
      "type": "event"
    },
    {
      "anonymous": false,
      "inputs": [
        {
          "indexed": false,
          "internalType": "uint256",
          "name": "newMaxFlashLoanAmount",
          "type": "uint256"
        }
      ],
      "name": "MaxFlashLoanAmountUpdated",
      "type": "event"
    },
    {
      "anonymous": false,
      "inputs": [
        {
          "indexed": true,
          "internalType": "address",
          "name": "previousOwner",
          "type": "address"
        },
        {
          "indexed": true,
          "internalType": "address",
          "name": "newOwner",
          "type": "address"
        }
      ],
      "name": "OwnershipTransferred",
      "type": "event"
    },
    {
      "anonymous": false,
      "inputs": [
        {
          "indexed": true,
          "internalType": "address",
          "name": "from",
          "type": "address"
        },
        {
          "indexed": true,
          "internalType": "address",
          "name": "to",
          "type": "address"
        },
        {
          "indexed": false,
          "internalType": "uint256",
          "name": "value",
          "type": "uint256"
        }
      ],
      "name": "Transfer",
      "type": "event"
    },
    {
      "anonymous": false,
      "inputs": [
        {
          "indexed": false,
          "internalType": "address",
          "name": "newTreasury",
          "type": "address"
        }
      ],
      "name": "TreasuryUpdated",
      "type": "event"
    },
    {
      "inputs": [
        {
          "internalType": "address",
          "name": "owner",
          "type": "address"
        },
        {
          "internalType": "address",
          "name": "spender",
          "type": "address"
        }
      ],
      "name": "allowance",
      "outputs": [
        {
          "internalType": "uint256",
          "name": "",
          "type": "uint256"
        }
      ],
      "stateMutability": "view",
      "type": "function"
    },
    {
      "inputs": [
        {
          "internalType": "address",
          "name": "spender",
          "type": "address"
        },
        {
          "internalType": "uint256",
          "name": "amount",
          "type": "uint256"
        }
      ],
      "name": "approve",
      "outputs": [
        {
          "internalType": "bool",
          "name": "",
          "type": "bool"
        }
      ],
      "stateMutability": "nonpayable",
      "type": "function"
    },
    {
      "inputs": [
        {
          "internalType": "address",
          "name": "account",
          "type": "address"
        }
      ],
      "name": "balanceOf",
      "outputs": [
        {
          "internalType": "uint256",
          "name": "",
          "type": "uint256"
        }
      ],
      "stateMutability": "view",
      "type": "function"
    },
    {
      "inputs": [
        {
          "internalType": "uint256",
          "name": "_amount",
          "type": "uint256"
        }
      ],
      "name": "burn",
      "outputs": [],
      "stateMutability": "nonpayable",
      "type": "function"
    },
    {
      "inputs": [],
      "name": "decimals",
      "outputs": [
        {
          "internalType": "uint8",
          "name": "",
          "type": "uint8"
        }
      ],
      "stateMutability": "view",
      "type": "function"
    },
    {
      "inputs": [
        {
          "internalType": "address",
          "name": "spender",
          "type": "address"
        },
        {
          "internalType": "uint256",
          "name": "subtractedValue",
          "type": "uint256"
        }
      ],
      "name": "decreaseAllowance",
      "outputs": [
        {
          "internalType": "bool",
          "name": "",
          "type": "bool"
        }
      ],
      "stateMutability": "nonpayable",
      "type": "function"
    },
    {
      "inputs": [],
      "name": "feesCollected",
      "outputs": [
        {
          "internalType": "uint256",
          "name": "",
          "type": "uint256"
        }
      ],
      "stateMutability": "view",
      "type": "function"
    },
    {
      "inputs": [
        {
          "internalType": "address",
          "name": "_token",
          "type": "address"
        },
        {
          "internalType": "uint256",
          "name": "_amount",
          "type": "uint256"
        }
      ],
      "name": "flashFee",
      "outputs": [
        {
          "internalType": "uint256",
          "name": "",
          "type": "uint256"
        }
      ],
      "stateMutability": "view",
      "type": "function"
    },
    {
      "inputs": [
        {
          "internalType": "contract IERC3156FlashBorrower",
          "name": "receiver",
          "type": "address"
        },
        {
          "internalType": "address",
          "name": "token",
          "type": "address"
        },
        {
          "internalType": "uint256",
          "name": "amount",
          "type": "uint256"
        },
        {
          "internalType": "bytes",
          "name": "data",
          "type": "bytes"
        }
      ],
      "name": "flashLoan",
      "outputs": [
        {
          "internalType": "bool",
          "name": "",
          "type": "bool"
        }
      ],
      "stateMutability": "nonpayable",
      "type": "function"
    },
    {
      "inputs": [],
      "name": "harvestFees",
      "outputs": [],
      "stateMutability": "nonpayable",
      "type": "function"
    },
    {
      "inputs": [
        {
          "internalType": "address",
          "name": "spender",
          "type": "address"
        },
        {
          "internalType": "uint256",
          "name": "addedValue",
          "type": "uint256"
        }
      ],
      "name": "increaseAllowance",
      "outputs": [
        {
          "internalType": "bool",
          "name": "",
          "type": "bool"
        }
      ],
      "stateMutability": "nonpayable",
      "type": "function"
    },
    {
      "inputs": [
        {
          "internalType": "address",
          "name": "_token",
          "type": "address"
        }
      ],
      "name": "maxFlashLoan",
      "outputs": [
        {
          "internalType": "uint256",
          "name": "",
          "type": "uint256"
        }
      ],
      "stateMutability": "view",
      "type": "function"
    },
    {
      "inputs": [
        {
          "internalType": "address",
          "name": "_to",
          "type": "address"
        },
        {
          "internalType": "uint256",
          "name": "_amount",
          "type": "uint256"
        }
      ],
      "name": "mint",
      "outputs": [],
      "stateMutability": "nonpayable",
      "type": "function"
    },
    {
      "inputs": [],
      "name": "name",
      "outputs": [
        {
          "internalType": "string",
          "name": "",
          "type": "string"
        }
      ],
      "stateMutability": "view",
      "type": "function"
    },
    {
      "inputs": [],
      "name": "owner",
      "outputs": [
        {
          "internalType": "address",
          "name": "",
          "type": "address"
        }
      ],
      "stateMutability": "view",
      "type": "function"
    },
    {
      "inputs": [],
      "name": "renounceOwnership",
      "outputs": [],
      "stateMutability": "nonpayable",
      "type": "function"
    },
    {
      "inputs": [
        {
          "internalType": "uint256",
          "name": "_flashFeeRate",
          "type": "uint256"
        }
      ],
      "name": "setFlashFeeRate",
      "outputs": [],
      "stateMutability": "nonpayable",
      "type": "function"
    },
    {
      "inputs": [
        {
          "internalType": "uint256",
          "name": "_maxFlashLoanAmount",
          "type": "uint256"
        }
      ],
      "name": "setMaxFlashLoanAmount",
      "outputs": [],
      "stateMutability": "nonpayable",
      "type": "function"
    },
    {
      "inputs": [
        {
          "internalType": "address",
          "name": "_treasury",
          "type": "address"
        }
      ],
      "name": "setTreasury",
      "outputs": [],
      "stateMutability": "nonpayable",
      "type": "function"
    },
    {
      "inputs": [],
      "name": "symbol",
      "outputs": [
        {
          "internalType": "string",
          "name": "",
          "type": "string"
        }
      ],
      "stateMutability": "view",
      "type": "function"
    },
    {
      "inputs": [],
      "name": "totalSupply",
      "outputs": [
        {
          "internalType": "uint256",
          "name": "",
          "type": "uint256"
        }
      ],
      "stateMutability": "view",
      "type": "function"
    },
    {
      "inputs": [
        {
          "internalType": "address",
          "name": "recipient",
          "type": "address"
        },
        {
          "internalType": "uint256",
          "name": "amount",
          "type": "uint256"
        }
      ],
      "name": "transfer",
      "outputs": [
        {
          "internalType": "bool",
          "name": "",
          "type": "bool"
        }
      ],
      "stateMutability": "nonpayable",
      "type": "function"
    },
    {
      "inputs": [
        {
          "internalType": "address",
          "name": "sender",
          "type": "address"
        },
        {
          "internalType": "address",
          "name": "recipient",
          "type": "address"
        },
        {
          "internalType": "uint256",
          "name": "amount",
          "type": "uint256"
        }
      ],
      "name": "transferFrom",
      "outputs": [
        {
          "internalType": "bool",
          "name": "",
          "type": "bool"
        }
      ],
      "stateMutability": "nonpayable",
      "type": "function"
    },
    {
      "inputs": [
        {
          "internalType": "address",
          "name": "newOwner",
          "type": "address"
        }
      ],
      "name": "transferOwnership",
      "outputs": [],
      "stateMutability": "nonpayable",
      "type": "function"
    }
  ],
  "transactionHash": "0x0e34375a759fc23cfd7695b53e52082e2e561d9a203c56ee6db6fe31cc676556",
  "args": [
    "0xfE07A76856A6FFD96ddF466DEdedab1d76355A6b"
  ],
  "numDeployments": 1,
  "solcInputHash": "c71c38bb9b435a616663ed98f0058d11",
  "bytecode": "0x60806040523480156200001157600080fd5b50604051620017e7380380620017e78339810160408190526200003491620002eb565b604080518082018252600f81526e20b933b79029ba30b13632b1b7b4b760891b6020808301918252835180850190945260048452634152474f60e01b908401528151919291620000879160039162000245565b5080516200009d90600490602084019062000245565b505050620000ba620000b4620001ef60201b60201c565b620001f3565b6001600160a01b038116620001155760405162461bcd60e51b815260206004820152601f60248201527f44656274546f6b656e3a20307830207472656173757279206164647265737300604482015260640160405180910390fd5b600980546001600160a01b0319166001600160a01b038316908117909155600060068190556007556040519081527f7dae230f18360d76a040c81f050aa14eb9d6dc7901b20fc5d855e2a20fe814d19060200160405180910390a17fb66167cac191ba19cb545d4623793355b81c0aa009715393bf1a86a28d4c1813600654604051620001a491815260200190565b60405180910390a17fc5e896318030874c21d8618de38d3347f5d615fa7a421f2c266d27d9966487d1600754604051620001e091815260200190565b60405180910390a1506200035a565b3390565b600580546001600160a01b038381166001600160a01b0319831681179093556040519116919082907f8be0079c531659141344cd1fd0a4f28419497f9722a3daafe3b4186f6b6457e090600090a35050565b82805462000253906200031d565b90600052602060002090601f016020900481019282620002775760008555620002c2565b82601f106200029257805160ff1916838001178555620002c2565b82800160010185558215620002c2579182015b82811115620002c2578251825591602001919060010190620002a5565b50620002d0929150620002d4565b5090565b5b80821115620002d05760008155600101620002d5565b600060208284031215620002fe57600080fd5b81516001600160a01b03811681146200031657600080fd5b9392505050565b600181811c908216806200033257607f821691505b602082108114156200035457634e487b7160e01b600052602260045260246000fd5b50919050565b61147d806200036a6000396000f3fe608060405234801561001057600080fd5b50600436106101285760003560e01c806306fdde031461012d578063095ea7b31461014b578063138cc18f1461016e57806318160ddd1461017857806323b872dd1461018a578063313ce5671461019d57806339509351146101ac57806340c10f19146101bf57806342966c68146101d25780635cffe9de146101e5578063613255ab146101f857806370a082311461020b578063715018a6146102345780638da5cb5b1461023c57806395d89b411461025157806399c5a4be14610259578063a457c2d71461026c578063a9059cbb1461027f578063d626811b14610292578063d9d98ce4146102a5578063dd62ed3e146102b8578063f071db5a146102cb578063f0f44260146102d4578063f2fde38b146102e7575b600080fd5b6101356102fa565b60405161014291906112c7565b60405180910390f35b61015e61015936600461115b565b61038c565b6040519015158152602001610142565b6101766103a2565b005b6002545b604051908152602001610142565b61015e61019836600461111a565b6103f7565b60405160128152602001610142565b61015e6101ba36600461115b565b6104a6565b6101766101cd36600461115b565b6104e2565b6101766101e036600461123e565b61051f565b61015e6101f33660046111a0565b610529565b61017c6102063660046110c4565b61073d565b61017c6102193660046110c4565b6001600160a01b031660009081526020819052604090205490565b610176610760565b61024461079b565b6040516101429190611257565b6101356107aa565b61017661026736600461123e565b6107b9565b61015e61027a36600461115b565b610824565b61015e61028d36600461115b565b6108bd565b6101766102a036600461123e565b6108ca565b61017c6102b336600461115b565b61097b565b61017c6102c63660046110e1565b6109f6565b61017c60085481565b6101766102e23660046110c4565b610a21565b6101766102f53660046110c4565b610af2565b606060038054610309906113c1565b80601f0160208091040260200160405190810160405280929190818152602001828054610335906113c1565b80156103825780601f1061035757610100808354040283529160200191610382565b820191906000526020600020905b81548152906001019060200180831161036557829003601f168201915b5050505050905090565b6000610399338484610b8f565b50600192915050565b6008805460009091556040518181527ffe8981e94194cbbb8c05bbe9e35d5efd344dea70889a90ca458fd7da74672ec99060200160405180910390a16009546103f4906001600160a01b031682610cb4565b50565b6000610404848484610d81565b6001600160a01b03841660009081526001602090815260408083203384529091529020548281101561048e5760405162461bcd60e51b815260206004820152602860248201527f45524332303a207472616e7366657220616d6f756e74206578636565647320616044820152676c6c6f77616e636560c01b60648201526084015b60405180910390fd5b61049b8533858403610b8f565b506001949350505050565b3360008181526001602090815260408083206001600160a01b038716845290915281205490916103999185906104dd908690611351565b610b8f565b336104eb61079b565b6001600160a01b0316146105115760405162461bcd60e51b81526004016104859061131c565b61051b8282610cb4565b5050565b6103f43382610f3e565b600060065484111561057b5760405162461bcd60e51b815260206004820152601b60248201527a088cac4e8a8ded6cadc7440c2dadeeadce840c2c4deecca40dac2f602b1b6044820152606401610485565b6000610587868661097b565b90506105938786610cb4565b6040516323e30c8b60e01b81527f439148f0bbc682ca079e46d6e2c2f0c1e3b820f1a291b069d8882abf8cf18dd9906001600160a01b038916906323e30c8b906105eb9033908b908b9088908c908c9060040161126b565b602060405180830381600087803b15801561060557600080fd5b505af1158015610619573d6000803e3d6000fd5b505050506040513d601f19601f8201168201806040525081019061063d9190611187565b1461068a5760405162461bcd60e51b815260206004820152601f60248201527f44656274546f6b656e3a20696e76616c69642072657475726e2076616c7565006044820152606401610485565b600061069688306109f6565b90506106a28287611351565b8110156106f15760405162461bcd60e51b815260206004820152601f60248201527f616c6c6f77616e636520646f6573206e6f7420616c6c6f7720726566756e64006044820152606401610485565b61070b8830846107018a866113aa565b6104dd91906113aa565b61071e886107198489611351565b610f3e565b8160085461072c9190611351565b600855506001979650505050505050565b60006001600160a01b038216301461075657600061075a565b6006545b92915050565b3361076961079b565b6001600160a01b03161461078f5760405162461bcd60e51b81526004016104859061131c565b6107996000611072565b565b6005546001600160a01b031690565b606060048054610309906113c1565b336107c261079b565b6001600160a01b0316146107e85760405162461bcd60e51b81526004016104859061131c565b60068190556040518181527fb66167cac191ba19cb545d4623793355b81c0aa009715393bf1a86a28d4c1813906020015b60405180910390a150565b3360009081526001602090815260408083206001600160a01b0386168452909152812054828110156108a65760405162461bcd60e51b815260206004820152602560248201527f45524332303a2064656372656173656420616c6c6f77616e63652062656c6f77604482015264207a65726f60d81b6064820152608401610485565b6108b33385858403610b8f565b5060019392505050565b6000610399338484610d81565b336108d361079b565b6001600160a01b0316146108f95760405162461bcd60e51b81526004016104859061131c565b620186a081106109465760405162461bcd60e51b8152602060048201526018602482015277088cac4e8a8ded6cadc7440e4c2e8ca40e8dede40d0d2ced60431b6044820152606401610485565b60078190556040518181527fc5e896318030874c21d8618de38d3347f5d615fa7a421f2c266d27d9966487d190602001610819565b60006001600160a01b03831630146109d35760405162461bcd60e51b815260206004820152601b60248201527a22a9219918233630b9b426b4b73a1d103bb937b733903a37b5b2b760291b6044820152606401610485565b620186a0600754836109e5919061138b565b6109ef9190611369565b9392505050565b6001600160a01b03918216600090815260016020908152604080832093909416825291909152205490565b33610a2a61079b565b6001600160a01b031614610a505760405162461bcd60e51b81526004016104859061131c565b6001600160a01b038116610aa65760405162461bcd60e51b815260206004820152601f60248201527f44656274546f6b656e3a203078302074726561737572792061646472657373006044820152606401610485565b600980546001600160a01b0319166001600160a01b0383169081179091556040517f7dae230f18360d76a040c81f050aa14eb9d6dc7901b20fc5d855e2a20fe814d19161081991611257565b33610afb61079b565b6001600160a01b031614610b215760405162461bcd60e51b81526004016104859061131c565b6001600160a01b038116610b865760405162461bcd60e51b815260206004820152602660248201527f4f776e61626c653a206e6577206f776e657220697320746865207a65726f206160448201526564647265737360d01b6064820152608401610485565b6103f481611072565b6001600160a01b038316610bf15760405162461bcd60e51b8152602060048201526024808201527f45524332303a20617070726f76652066726f6d20746865207a65726f206164646044820152637265737360e01b6064820152608401610485565b6001600160a01b038216610c525760405162461bcd60e51b815260206004820152602260248201527f45524332303a20617070726f766520746f20746865207a65726f206164647265604482015261737360f01b6064820152608401610485565b6001600160a01b0383811660008181526001602090815260408083209487168084529482529182902085905590518481527f8c5be1e5ebec7d5bd14f71427d1e84f3dd0314c0f7b2291e5b200ac8c7c3b92591015b60405180910390a3505050565b6001600160a01b038216610d0a5760405162461bcd60e51b815260206004820152601f60248201527f45524332303a206d696e7420746f20746865207a65726f2061646472657373006044820152606401610485565b8060026000828254610d1c9190611351565b90915550506001600160a01b03821660009081526020819052604081208054839290610d49908490611351565b90915550506040518181526001600160a01b038316906000906000805160206114288339815191529060200160405180910390a35050565b6001600160a01b038316610de55760405162461bcd60e51b815260206004820152602560248201527f45524332303a207472616e736665722066726f6d20746865207a65726f206164604482015264647265737360d81b6064820152608401610485565b6001600160a01b038216610e475760405162461bcd60e51b815260206004820152602360248201527f45524332303a207472616e7366657220746f20746865207a65726f206164647260448201526265737360e81b6064820152608401610485565b6001600160a01b03831660009081526020819052604090205481811015610ebf5760405162461bcd60e51b815260206004820152602660248201527f45524332303a207472616e7366657220616d6f756e7420657863656564732062604482015265616c616e636560d01b6064820152608401610485565b6001600160a01b03808516600090815260208190526040808220858503905591851681529081208054849290610ef6908490611351565b92505081905550826001600160a01b0316846001600160a01b031660008051602061142883398151915284604051610f3091815260200190565b60405180910390a350505050565b6001600160a01b038216610f9e5760405162461bcd60e51b815260206004820152602160248201527f45524332303a206275726e2066726f6d20746865207a65726f206164647265736044820152607360f81b6064820152608401610485565b6001600160a01b038216600090815260208190526040902054818110156110125760405162461bcd60e51b815260206004820152602260248201527f45524332303a206275726e20616d6f756e7420657863656564732062616c616e604482015261636560f01b6064820152608401610485565b6001600160a01b03831660009081526020819052604081208383039055600280548492906110419084906113aa565b90915550506040518281526000906001600160a01b0385169060008051602061142883398151915290602001610ca7565b600580546001600160a01b038381166001600160a01b0319831681179093556040519116919082907f8be0079c531659141344cd1fd0a4f28419497f9722a3daafe3b4186f6b6457e090600090a35050565b6000602082840312156110d657600080fd5b81356109ef81611412565b600080604083850312156110f457600080fd5b82356110ff81611412565b9150602083013561110f81611412565b809150509250929050565b60008060006060848603121561112f57600080fd5b833561113a81611412565b9250602084013561114a81611412565b929592945050506040919091013590565b6000806040838503121561116e57600080fd5b823561117981611412565b946020939093013593505050565b60006020828403121561119957600080fd5b5051919050565b6000806000806000608086880312156111b857600080fd5b85356111c381611412565b945060208601356111d381611412565b93506040860135925060608601356001600160401b03808211156111f657600080fd5b818801915088601f83011261120a57600080fd5b81358181111561121957600080fd5b89602082850101111561122b57600080fd5b9699959850939650602001949392505050565b60006020828403121561125057600080fd5b5035919050565b6001600160a01b0391909116815260200190565b6001600160a01b03878116825286166020820152604081018590526060810184905260a06080820181905281018290526000828460c0840137600060c0848401015260c0601f19601f8501168301019050979650505050505050565b600060208083528351808285015260005b818110156112f4578581018301518582016040015282016112d8565b81811115611306576000604083870101525b50601f01601f1916929092016040019392505050565b6020808252818101527f4f776e61626c653a2063616c6c6572206973206e6f7420746865206f776e6572604082015260600190565b60008219821115611364576113646113fc565b500190565b60008261138657634e487b7160e01b600052601260045260246000fd5b500490565b60008160001904831182151516156113a5576113a56113fc565b500290565b6000828210156113bc576113bc6113fc565b500390565b600181811c908216806113d557607f821691505b602082108114156113f657634e487b7160e01b600052602260045260246000fd5b50919050565b634e487b7160e01b600052601160045260246000fd5b6001600160a01b03811681146103f457600080fdfeddf252ad1be2c89b69c2b068fc378daa952ba7f163c4a11628f55a4df523b3efa26469706673582212203a20083de2f8085c0c2ba6653abc73c6f961ad327eb77d2405f0c8b1c991f9d564736f6c63430008060033",
  "devdoc": {
    "kind": "dev",
    "methods": {
      "allowance(address,address)": {
        "details": "See {IERC20-allowance}."
      },
      "approve(address,uint256)": {
        "details": "See {IERC20-approve}. Requirements: - `spender` cannot be the zero address."
      },
      "balanceOf(address)": {
        "details": "See {IERC20-balanceOf}."
      },
      "burn(uint256)": {
        "params": {
          "_amount": "number of tokens to burn"
        }
      },
      "decimals()": {
        "details": "Returns the number of decimals used to get its user representation. For example, if `decimals` equals `2`, a balance of `505` tokens should be displayed to a user as `5.05` (`505 / 10 ** 2`). Tokens usually opt for a value of 18, imitating the relationship between Ether and Wei. This is the value {ERC20} uses, unless this function is overridden; NOTE: This information is only used for _display_ purposes: it in no way affects any of the arithmetic of the contract, including {IERC20-balanceOf} and {IERC20-transfer}."
      },
      "decreaseAllowance(address,uint256)": {
        "details": "Atomically decreases the allowance granted to `spender` by the caller. This is an alternative to {approve} that can be used as a mitigation for problems described in {IERC20-approve}. Emits an {Approval} event indicating the updated allowance. Requirements: - `spender` cannot be the zero address. - `spender` must have allowance for the caller of at least `subtractedValue`."
      },
      "flashFee(address,uint256)": {
        "details": "Returns the fee applied when doing flash loans. ",
        "params": {
          "_amount": "The amount of tokens to be loaned.",
          "_token": "The token to be flash loaned."
        },
        "returns": {
          "_0": "The fees applied to the corresponding flash loan."
        }
      },
      "flashLoan(address,address,uint256,bytes)": {
        "details": "Performs a flash loan. New tokens are minted and sent to the `receiver`, who is required to implement the {IERC3156FlashBorrower} interface. By the end of the flash loan, the receiver is expected to own amount + fee tokens and have them approved back to the token contract itself so they can be burned.",
        "params": {
          "amount": "The amount of tokens to be loaned.",
          "data": "An arbitrary datafield that is passed to the receiver.",
          "receiver": "The receiver of the flash loan. Should implement the {IERC3156FlashBorrower.onFlashLoan} interface.",
          "token": "The token to be flash loaned. Only `address(this)` is supported."
        },
        "returns": {
          "_0": "`true` is the flash loan was successful."
        }
      },
      "increaseAllowance(address,uint256)": {
        "details": "Atomically increases the allowance granted to `spender` by the caller. This is an alternative to {approve} that can be used as a mitigation for problems described in {IERC20-approve}. Emits an {Approval} event indicating the updated allowance. Requirements: - `spender` cannot be the zero address."
      },
      "maxFlashLoan(address)": {
        "details": "Returns the maximum amount of tokens available for loan.",
        "params": {
          "_token": "The address of the token that is requested."
        },
        "returns": {
          "_0": "The amont of token that can be loaned."
        }
      },
      "mint(address,uint256)": {
        "params": {
          "_amount": "number of tokens to recieve",
          "_to": "address to receive the tokens"
        }
      },
      "name()": {
        "details": "Returns the name of the token."
      },
      "owner()": {
        "details": "Returns the address of the current owner."
      },
      "renounceOwnership()": {
        "details": "Leaves the contract without owner. It will not be possible to call `onlyOwner` functions anymore. Can only be called by the current owner. NOTE: Renouncing ownership will leave the contract without an owner, thereby removing any functionality that is only available to the owner."
      },
      "setFlashFeeRate(uint256)": {
        "params": {
          "_flashFeeRate": "the new rate"
        }
      },
      "setMaxFlashLoanAmount(uint256)": {
        "params": {
          "_maxFlashLoanAmount": "the new amount"
        }
      },
      "setTreasury(address)": {
        "params": {
          "_treasury": "the new treasury"
        }
      },
      "symbol()": {
        "details": "Returns the symbol of the token, usually a shorter version of the name."
      },
      "totalSupply()": {
        "details": "See {IERC20-totalSupply}."
      },
      "transfer(address,uint256)": {
        "details": "See {IERC20-transfer}. Requirements: - `recipient` cannot be the zero address. - the caller must have a balance of at least `amount`."
      },
      "transferFrom(address,address,uint256)": {
        "details": "See {IERC20-transferFrom}. Emits an {Approval} event indicating the updated allowance. This is not required by the EIP. See the note at the beginning of {ERC20}. Requirements: - `sender` and `recipient` cannot be the zero address. - `sender` must have a balance of at least `amount`. - the caller must have allowance for ``sender``'s tokens of at least `amount`."
      },
      "transferOwnership(address)": {
        "details": "Transfers ownership of the contract to a new account (`newOwner`). Can only be called by the current owner."
      }
    },
    "version": 1
  },
  "userdoc": {
    "kind": "user",
    "methods": {
      "burn(uint256)": {
        "notice": "burns _amount of msg.sender's tokens"
      },
      "harvestFees()": {
        "notice": "harvests fees from flash loans to the treasury"
      },
      "mint(address,uint256)": {
        "notice": "mints new tokens to the _to address"
      },
      "setFlashFeeRate(uint256)": {
        "notice": "sets the flash fee rate with precision of 1e5, eg 100 == 0.1%"
      },
      "setMaxFlashLoanAmount(uint256)": {
        "notice": "sets the flash loan cap"
      },
      "setTreasury(address)": {
        "notice": "updates the treasury (where fees are sent)"
      }
    },
    "notice": "A collateralized debt position token. Protocol assumes this is worth $1.",
    "version": 1
  },
  "storageLayout": {
    "storage": [
      {
        "astId": 428,
        "contract": "contracts/DebtToken.sol:DebtToken",
        "label": "_balances",
        "offset": 0,
        "slot": "0",
        "type": "t_mapping(t_address,t_uint256)"
      },
      {
        "astId": 434,
        "contract": "contracts/DebtToken.sol:DebtToken",
        "label": "_allowances",
        "offset": 0,
        "slot": "1",
        "type": "t_mapping(t_address,t_mapping(t_address,t_uint256))"
      },
      {
        "astId": 436,
        "contract": "contracts/DebtToken.sol:DebtToken",
        "label": "_totalSupply",
        "offset": 0,
        "slot": "2",
        "type": "t_uint256"
      },
      {
        "astId": 438,
        "contract": "contracts/DebtToken.sol:DebtToken",
        "label": "_name",
        "offset": 0,
        "slot": "3",
        "type": "t_string_storage"
      },
      {
        "astId": 440,
        "contract": "contracts/DebtToken.sol:DebtToken",
        "label": "_symbol",
        "offset": 0,
        "slot": "4",
        "type": "t_string_storage"
      },
      {
        "astId": 7,
        "contract": "contracts/DebtToken.sol:DebtToken",
        "label": "_owner",
        "offset": 0,
        "slot": "5",
        "type": "t_address"
      },
      {
        "astId": 3454,
        "contract": "contracts/DebtToken.sol:DebtToken",
        "label": "maxFlashLoanAmount",
        "offset": 0,
        "slot": "6",
        "type": "t_uint256"
      },
      {
        "astId": 3456,
        "contract": "contracts/DebtToken.sol:DebtToken",
        "label": "flashFeeRate",
        "offset": 0,
        "slot": "7",
        "type": "t_uint256"
      },
      {
        "astId": 3458,
        "contract": "contracts/DebtToken.sol:DebtToken",
        "label": "feesCollected",
        "offset": 0,
        "slot": "8",
        "type": "t_uint256"
      },
      {
        "astId": 3463,
        "contract": "contracts/DebtToken.sol:DebtToken",
        "label": "treasury",
        "offset": 0,
        "slot": "9",
        "type": "t_address"
      }
    ],
    "types": {
      "t_address": {
        "encoding": "inplace",
        "label": "address",
        "numberOfBytes": "20"
      },
      "t_mapping(t_address,t_mapping(t_address,t_uint256))": {
        "encoding": "mapping",
        "key": "t_address",
        "label": "mapping(address => mapping(address => uint256))",
        "numberOfBytes": "32",
        "value": "t_mapping(t_address,t_uint256)"
      },
      "t_mapping(t_address,t_uint256)": {
        "encoding": "mapping",
        "key": "t_address",
        "label": "mapping(address => uint256)",
        "numberOfBytes": "32",
        "value": "t_uint256"
      },
      "t_string_storage": {
        "encoding": "bytes",
        "label": "string",
        "numberOfBytes": "32"
      },
      "t_uint256": {
        "encoding": "inplace",
        "label": "uint256",
        "numberOfBytes": "32"
      }
    }
  }
}