{
  "address": "0x68bb830874D36ea13d14daB9dD774E7c350D9c94",
  "abi": [
    {
      "inputs": [
        {
          "internalType": "address",
          "name": "_owner",
          "type": "address"
        }
      ],
      "stateMutability": "nonpayable",
      "type": "constructor"
    },
    {
      "anonymous": false,
      "inputs": [
        {
          "indexed": false,
          "internalType": "uint256",
          "name": "index",
          "type": "uint256"
        }
      ],
      "name": "CreateMarket",
      "type": "event"
    },
    {
      "anonymous": false,
      "inputs": [
        {
          "indexed": true,
          "internalType": "address",
          "name": "previousOwner",
          "type": "address"
        },
        {
          "indexed": true,
          "internalType": "address",
          "name": "newOwner",
          "type": "address"
        }
      ],
      "name": "OwnershipTransferred",
      "type": "event"
    },
    {
      "inputs": [
        {
          "internalType": "address",
          "name": "_treasury",
          "type": "address"
        },
        {
          "internalType": "address",
          "name": "_collateralToken",
          "type": "address"
        },
        {
          "internalType": "address",
          "name": "_debtToken",
          "type": "address"
        },
        {
          "internalType": "address",
          "name": "_oracle",
          "type": "address"
        },
        {
          "internalType": "uint256",
          "name": "_maxLoanToValue",
          "type": "uint256"
        },
        {
          "internalType": "uint256",
          "name": "_borrowRate",
          "type": "uint256"
        },
        {
          "internalType": "uint256",
          "name": "_liquidationPenalty",
          "type": "uint256"
        }
      ],
      "name": "createZeroInterestMarket",
      "outputs": [],
      "stateMutability": "nonpayable",
      "type": "function"
    },
    {
      "inputs": [
        {
          "internalType": "uint256",
          "name": "",
          "type": "uint256"
        }
      ],
      "name": "markets",
      "outputs": [
        {
          "internalType": "contract IMarket",
          "name": "",
          "type": "address"
        }
      ],
      "stateMutability": "view",
      "type": "function"
    },
    {
      "inputs": [],
      "name": "numMarkets",
      "outputs": [
        {
          "internalType": "uint256",
          "name": "",
          "type": "uint256"
        }
      ],
      "stateMutability": "view",
      "type": "function"
    },
    {
      "inputs": [],
      "name": "owner",
      "outputs": [
        {
          "internalType": "address",
          "name": "",
          "type": "address"
        }
      ],
      "stateMutability": "view",
      "type": "function"
    },
    {
      "inputs": [],
      "name": "renounceOwnership",
      "outputs": [],
      "stateMutability": "nonpayable",
      "type": "function"
    },
    {
      "inputs": [
        {
          "internalType": "address",
          "name": "newOwner",
          "type": "address"
        }
      ],
      "name": "transferOwnership",
      "outputs": [],
      "stateMutability": "nonpayable",
      "type": "function"
    }
  ],
  "transactionHash": "0xdd372e20c9e917ee30acecd54b561fbb1347401415fda455444bf362d8d127eb",
  "args": [
    "0xfE07A76856A6FFD96ddF466DEdedab1d76355A6b"
  ],
  "numDeployments": 1,
  "solcInputHash": "e4635647cd969a8d9c0c827048963a98",
  "bytecode": "0x608060405234801561001057600080fd5b5060405161247338038061247383398101604081905261002f916101bd565b61003833610090565b604051610044906101b0565b604051809103906000f080158015610060573d6000803e3d6000fd5b50600280546001600160a01b0319166001600160a01b039290921691909117905561008a816100e0565b506101ed565b600080546001600160a01b038381166001600160a01b0319831681178455604051919092169283917f8be0079c531659141344cd1fd0a4f28419497f9722a3daafe3b4186f6b6457e09190a35050565b6000546001600160a01b0316331461013f5760405162461bcd60e51b815260206004820181905260248201527f4f776e61626c653a2063616c6c6572206973206e6f7420746865206f776e657260448201526064015b60405180910390fd5b6001600160a01b0381166101a45760405162461bcd60e51b815260206004820152602660248201527f4f776e61626c653a206e6577206f776e657220697320746865207a65726f206160448201526564647265737360d01b6064820152608401610136565b6101ad81610090565b50565b611cbc806107b783390190565b6000602082840312156101cf57600080fd5b81516001600160a01b03811681146101e657600080fd5b9392505050565b6105bb806101fc6000396000f3fe608060405234801561001057600080fd5b50600436106100625760003560e01c80630839cb331461006757806326e04f9d1461007c578063715018a6146100925780638da5cb5b1461009a578063b1283e77146100ba578063f2fde38b146100cd575b600080fd5b61007a6100753660046104a3565b6100e0565b005b6001546040519081526020015b60405180910390f35b61007a610269565b6100a26102a4565b6040516001600160a01b039091168152602001610089565b6100a26100c8366004610512565b6102b3565b61007a6100db366004610481565b6102dd565b336100e96102a4565b6001600160a01b0316146101185760405162461bcd60e51b815260040161010f9061052b565b60405180910390fd5b600254600090610130906001600160a01b031661037d565b9050806001600160a01b0316637403c6cd6101496102a4565b6040516001600160e01b031960e084901b1681526001600160a01b039182166004820152818c166024820152818b166044820152818a166064820152908816608482015260a4810187905260c4810186905260e4810185905261010401600060405180830381600087803b1580156101c057600080fd5b505af11580156101d4573d6000803e3d6000fd5b505060018054808201825560008290527fb10e2d527612073b26eecdfd717e6a320cf44b4afac2b0732d9fcbe2b7fa0cf60180546001600160a01b0319166001600160a01b03861617905580547f26ced030b552a3d773aa10fcde5b2ffe14f6c18e773de0a51e9b27159c2efad0935061024e9250610560565b60405190815260200160405180910390a15050505050505050565b336102726102a4565b6001600160a01b0316146102985760405162461bcd60e51b815260040161010f9061052b565b6102a2600061041a565b565b6000546001600160a01b031690565b600181815481106102c357600080fd5b6000918252602090912001546001600160a01b0316905081565b336102e66102a4565b6001600160a01b03161461030c5760405162461bcd60e51b815260040161010f9061052b565b6001600160a01b0381166103715760405162461bcd60e51b815260206004820152602660248201527f4f776e61626c653a206e6577206f776e657220697320746865207a65726f206160448201526564647265737360d01b606482015260840161010f565b61037a8161041a565b50565b6000604051733d602d80600a3d3981f3363d3d373d3d3d363d7360601b81528260601b60148201526e5af43d82803e903d91602b57fd5bf360881b60288201526037816000f09150506001600160a01b0381166104155760405162461bcd60e51b8152602060048201526016602482015275115490cc4c4d8dce8818dc99585d194819985a5b195960521b604482015260640161010f565b919050565b600080546001600160a01b038381166001600160a01b0319831681178455604051919092169283917f8be0079c531659141344cd1fd0a4f28419497f9722a3daafe3b4186f6b6457e09190a35050565b80356001600160a01b038116811461041557600080fd5b60006020828403121561049357600080fd5b61049c8261046a565b9392505050565b600080600080600080600060e0888a0312156104be57600080fd5b6104c78861046a565b96506104d56020890161046a565b95506104e36040890161046a565b94506104f16060890161046a565b9699959850939660808101359560a0820135955060c0909101359350915050565b60006020828403121561052457600080fd5b5035919050565b6020808252818101527f4f776e61626c653a2063616c6c6572206973206e6f7420746865206f776e6572604082015260600190565b60008282101561058057634e487b7160e01b600052601160045260246000fd5b50039056fea2646970667358221220c461feea5407531cf9ea816e2db6a0bad5adca5f3b91594138eefdecb7f8dae264736f6c63430008060033608060405234801561001057600080fd5b5061001a3361001f565b61006f565b600080546001600160a01b038381166001600160a01b0319831681178455604051919092169283917f8be0079c531659141344cd1fd0a4f28419497f9722a3daafe3b4186f6b6457e09190a35050565b611c3e8061007e6000396000f3fe608060405234801561001057600080fd5b50600436106101ac5760003560e01c8063053f14da146101b1578063138cc18f146101cd57806316fa77ab146101d757806322867d78146101ea57806323f5589a146101fd578063408ace821461020657806347e7ef24146102295780634ac8eb5f1461023c5780634b8a35291461024557806361d027b31461025857806363bb1a2514610278578063673a7e281461028b578063715018a6146102935780637403c6cd1461029b57806377f01edd146102ae5780637adbf973146102b85780637dc0d1d0146102cb5780637dd5fd23146102de57806380623444146102ed5780638980f11f146103005780638da5cb5b14610313578063a2284b9e146102ae578063b2016bd41461031b578063b69e5c771461032e578063b75061bb1461034e578063c42c6e3b146102ae578063c914b43714610361578063ebc9b94d1461036a578063ed5611fb1461037d578063f071db5a14610386578063f0f442601461038f578063f2fde38b146103a2578063f3fef3a3146103b5578063f69f1e4a146103c8578063f8d89898146103e8578063fc7b9c18146103fb575b600080fd5b6101ba60055481565b6040519081526020015b60405180910390f35b6101d5610404565b005b6101ba6101e536600461182d565b610460565b6101d56101f83660046118f1565b61051b565b6101ba60095481565b61021961021436600461182d565b61061a565b60405190151581526020016101c4565b6101d56102373660046118f1565b610630565b6101ba600c5481565b6101d56102533660046118f1565b6106d3565b60015461026b906001600160a01b031681565b6040516101c49190611a0e565b6101d561028636600461191d565b6107e4565b6101ba610baa565b6101d5610bb9565b6101d56102a9366004611867565b610bf4565b6101ba620186a081565b6101d56102c636600461182d565b610ef2565b60045461026b906001600160a01b031681565b6101ba670de0b6b3a764000081565b6101d56102fb3660046119b7565b610fb8565b6101d561030e3660046118f1565b61106e565b61026b61116e565b60025461026b906001600160a01b031681565b6101ba61033c36600461182d565b600b6020526000908152604090205481565b6101d561035c3660046119d0565b61117d565b6101ba60085481565b6101d56103783660046119d0565b611191565b6101ba60075481565b6101ba60065481565b6101d561039d36600461182d565b6111a5565b6101d56103b036600461182d565b611262565b6101d56103c33660046118f1565b6112ff565b6101ba6103d636600461182d565b600a6020526000908152604090205481565b60035461026b906001600160a01b031681565b6101ba600d5481565b6006805460009091556040518181527ffe8981e94194cbbb8c05bbe9e35d5efd344dea70889a90ca458fd7da74672ec99060200160405180910390a160015460035461045d916001600160a01b03918216911683611404565b50565b6001600160a01b0381166000908152600b602052604081205461048557506000919050565b6001600160a01b0382166000908152600a60205260409020546104ab5750600019919050565b6005546001600160a01b0383166000908152600a6020526040902054670de0b6b3a7640000916104da91611afb565b6104e49190611ad9565b6001600160a01b0383166000908152600b602052604090205461050b90620186a090611afb565b6105159190611ad9565b92915050565b6001600160a01b0382166000908152600b60205260409020548111156105855760405162461bcd60e51b815260206004820152601a60248201527913585c9ad95d0e881c995c185e48195e18d959591cc81919589d60321b60448201526064015b60405180910390fd5b80600d546105939190611b1a565b600d556001600160a01b0382166000908152600b60205260409020546105ba908290611b1a565b6001600160a01b038084166000908152600b60205260409020919091556003546105e79116333084611467565b6040518181526001600160a01b038316903390600080516020611bc9833981519152906020015b60405180910390a35050565b600060075461062883610460565b111592915050565b6001600160a01b0382166000908152600a6020526040902054610654908290611ac1565b6001600160a01b0383166000908152600a6020526040902055600c5461067b908290611ac1565b600c55600254610696906001600160a01b0316333084611467565b6040518181526001600160a01b0383169033907f5548c837ab068cf56a2c2479df0882a4922fd203edb7517321831d95078c5f629060200161060e565b6106db6114a5565b506000620186a0600854836106f09190611afb565b6106fa9190611ad9565b90508082600d5461070b9190611ac1565b6107159190611ac1565b600d55336000908152600b60205260409020548190610735908490611ac1565b61073f9190611ac1565b336000818152600b602052604090209190915561075b9061061a565b6107775760405162461bcd60e51b815260040161057c90611a55565b806006546107859190611ac1565b6006556040518281526001600160a01b0384169033907f312a5e5e1079f5dda4e95dbbd0b908b291fd5b992ef22073643ab691572c5b529060200160405180910390a36003546107df906001600160a01b03168484611404565b505050565b336001600160a01b038516141561083d5760405162461bcd60e51b815260206004820152601d60248201527f4d61726b65743a2063616e6e6f74206c69717569646174652073656c66000000604482015260640161057c565b60006108476114a5565b90506108528561061a565b156108965760405162461bcd60e51b815260206004820152601460248201527313585c9ad95d0e881d5cd95c881cdbdb1d995b9d60621b604482015260640161057c565b6001600160a01b0385166000908152600a6020526040812054670de0b6b3a7640000906108c4908490611afb565b6108ce9190611ad9565b90506000620186a0600954620186a06108e79190611b1a565b6108f19084611afb565b6108fb9190611ad9565b6001600160a01b0388166000908152600b6020526040812054919250908711610924578661093e565b6001600160a01b0388166000908152600b60205260409020545b905060008183101561096c5750506001600160a01b0387166000908152600a6020526040902054819061098c565b8261097f670de0b6b3a764000084611afb565b6109899190611ad9565b90505b6001600160a01b0389166000908152600a60205260409020546109b0908290611b1a565b6001600160a01b038a166000908152600a6020526040902055600c546109d7908290611b1a565b600c556001600160a01b0389166000908152600b60205260409020546109fe908390611b1a565b6001600160a01b038a166000908152600b6020526040902055600d54610a25908390611b1a565b600d556040518281526001600160a01b038a16903390600080516020611bc98339815191529060200160405180910390a3866001600160a01b0316896001600160a01b0316600080516020611be983398151915283604051610a8991815260200190565b60405180910390a360408051838152602081018390529081018690526001600160a01b0380891691908b16907f642dd4d37ddd32036b9797cec464c0045dd2118c549066ae6b0f88e32240c2d09060600160405180910390a3600254610af9906001600160a01b03168883611404565b6001600160a01b03861615610b87576002546003546040516371a1ff0960e11b81526001600160a01b039283166004820152908216602482015233604482015260648101849052608481018390529087169063e343fe129060a401600060405180830381600087803b158015610b6e57600080fd5b505af1158015610b82573d6000803e3d6000fd5b505050505b600354610b9f906001600160a01b0316333085611467565b505050505050505050565b6000610bb46114a5565b905090565b33610bc261116e565b6001600160a01b031614610be85760405162461bcd60e51b815260040161057c90611a8c565b610bf2600061157c565b565b600054600160a81b900460ff16610c1857600054600160a01b900460ff1615610c1c565b303b155b610c7f5760405162461bcd60e51b815260206004820152602e60248201527f496e697469616c697a61626c653a20636f6e747261637420697320616c72656160448201526d191e481a5b9a5d1a585b1a5e995960921b606482015260840161057c565b600054600160a81b900460ff16158015610ca9576000805461ffff60a01b191661010160a01b1790555b6001600160a01b038916610cf25760405162461bcd60e51b815260206004820152601060248201526f3078206f776e6572206164647265737360801b604482015260640161057c565b6001600160a01b038816610d3e5760405162461bcd60e51b81526020600482015260136024820152723078207472656173757279206164647265737360681b604482015260640161057c565b6001600160a01b038716610d915760405162461bcd60e51b815260206004820152601a602482015279307820636f6c6c61746572616c546f6b656e206164647265737360301b604482015260640161057c565b6001600160a01b038616610dde5760405162461bcd60e51b815260206004820152601460248201527330782064656274546f6b656e206164647265737360601b604482015260640161057c565b6001600160a01b038516610e285760405162461bcd60e51b81526020600482015260116024820152703078206f7261636c65206164647265737360781b604482015260640161057c565b600180546001600160a01b03808b166001600160a01b031992831617909255600280548a8416908316179055600380548984169083161790556004805492881692909116919091179055600784905560088390556009829055610e8a8961157c565b600080516020611ba983398151915288604051610ea79190611a0e565b60405180910390a1600080516020611b8983398151915285604051610ecc9190611a0e565b60405180910390a18015610b9f576000805460ff60a81b19169055505050505050505050565b33610efb61116e565b6001600160a01b031614610f215760405162461bcd60e51b815260040161057c90611a8c565b6001600160a01b038116610f745760405162461bcd60e51b815260206004820152601a6024820152794d61726b65743a20307830206f7261636c65206164647265737360301b604482015260640161057c565b600480546001600160a01b0319166001600160a01b038316179055604051600080516020611b8983398151915290610fad908390611a0e565b60405180910390a150565b33610fc161116e565b6001600160a01b031614610fe75760405162461bcd60e51b815260040161057c90611a8c565b61045d306001600160a01b0316638da5cb5b6040518163ffffffff1660e01b815260040160206040518083038186803b15801561102357600080fd5b505afa158015611037573d6000803e3d6000fd5b505050506040513d601f19601f8201168201806040525081019061105b919061184a565b6003546001600160a01b03169083611404565b3361107761116e565b6001600160a01b03161461109d5760405162461bcd60e51b815260040161057c90611a8c565b6003546001600160a01b03838116911614156110f85760405162461bcd60e51b815260206004820152601a60248201527943616e6e6f74207265636f766572206465627420746f6b656e7360301b604482015260640161057c565b6002546001600160a01b03838116911614156111565760405162461bcd60e51b815260206004820181905260248201527f43616e6e6f74207265636f76657220636f6c6c61746572616c20746f6b656e73604482015260640161057c565b61116a6001600160a01b0383163383611404565b5050565b6000546001600160a01b031690565b6111873383610630565b61116a33826106d3565b61119b338361051b565b61116a33826112ff565b336111ae61116e565b6001600160a01b0316146111d45760405162461bcd60e51b815260040161057c90611a8c565b6001600160a01b0381166112295760405162461bcd60e51b815260206004820152601c60248201527b4d61726b65743a20307830207472656173757279206164647265737360201b604482015260640161057c565b600180546001600160a01b0319166001600160a01b038316179055604051600080516020611ba983398151915290610fad908390611a0e565b3361126b61116e565b6001600160a01b0316146112915760405162461bcd60e51b815260040161057c90611a8c565b6001600160a01b0381166112f65760405162461bcd60e51b815260206004820152602660248201527f4f776e61626c653a206e6577206f776e657220697320746865207a65726f206160448201526564647265737360d01b606482015260840161057c565b61045d8161157c565b336000908152600a60205260409020548111156113595760405162461bcd60e51b81526020600482015260186024820152774d61726b65743a20616d6f756e7420746f6f206c6172676560401b604482015260640161057c565b6113616114a5565b50336000908152600a602052604090205461137d908290611b1a565b336000908152600a6020526040902055600c5461139b908290611b1a565b600c556113a73361061a565b6113c35760405162461bcd60e51b815260040161057c90611a55565b6040518181526001600160a01b038316903390600080516020611be98339815191529060200160405180910390a360025461116a906001600160a01b031683835b6040516001600160a01b0383166024820152604481018290526107df90849063a9059cbb60e01b906064015b60408051601f198184030181529190526020810180516001600160e01b03166001600160e01b0319909316929092179091526115cc565b6040516001600160a01b038085166024830152831660448201526064810182905261149f9085906323b872dd60e01b90608401611430565b50505050565b6000806000600460009054906101000a90046001600160a01b03166001600160a01b0316630fdb11cf6040518163ffffffff1660e01b8152600401604080518083038186803b1580156114f757600080fd5b505afa15801561150b573d6000803e3d6000fd5b505050506040513d601f19601f8201168201806040525081019061152f919061198b565b9150915081156115725760058190556040518181527fdf34c43531609ffbe660deb5fa18df5e7f0c358bfdb3d5ff0518fd1dfc38cc889060200160405180910390a15b6005549250505090565b600080546001600160a01b038381166001600160a01b0319831681178455604051919092169283917f8be0079c531659141344cd1fd0a4f28419497f9722a3daafe3b4186f6b6457e09190a35050565b6000611621826040518060400160405280602081526020017f5361666545524332303a206c6f772d6c6576656c2063616c6c206661696c6564815250856001600160a01b031661169e9092919063ffffffff16565b8051909150156107df578080602001905181019061163f9190611970565b6107df5760405162461bcd60e51b815260206004820152602a60248201527f5361666545524332303a204552433230206f7065726174696f6e20646964206e6044820152691bdd081cdd58d8d9595960b21b606482015260840161057c565b60606116ad84846000856116b7565b90505b9392505050565b6060824710156117185760405162461bcd60e51b815260206004820152602660248201527f416464726573733a20696e73756666696369656e742062616c616e636520666f6044820152651c8818d85b1b60d21b606482015260840161057c565b843b6117665760405162461bcd60e51b815260206004820152601d60248201527f416464726573733a2063616c6c20746f206e6f6e2d636f6e7472616374000000604482015260640161057c565b600080866001600160a01b0316858760405161178291906119f2565b60006040518083038185875af1925050503d80600081146117bf576040519150601f19603f3d011682016040523d82523d6000602084013e6117c4565b606091505b50915091506117d48282866117df565b979650505050505050565b606083156117ee5750816116b0565b8251156117fe5782518084602001fd5b8160405162461bcd60e51b815260040161057c9190611a22565b8051801515811461182857600080fd5b919050565b60006020828403121561183f57600080fd5b81356116b081611b73565b60006020828403121561185c57600080fd5b81516116b081611b73565b600080600080600080600080610100898b03121561188457600080fd5b883561188f81611b73565b9750602089013561189f81611b73565b965060408901356118af81611b73565b955060608901356118bf81611b73565b945060808901356118cf81611b73565b979a969950949793969560a0850135955060c08501359460e001359350915050565b6000806040838503121561190457600080fd5b823561190f81611b73565b946020939093013593505050565b6000806000806080858703121561193357600080fd5b843561193e81611b73565b935060208501359250604085013561195581611b73565b9150606085013561196581611b73565b939692955090935050565b60006020828403121561198257600080fd5b6116b082611818565b6000806040838503121561199e57600080fd5b6119a783611818565b9150602083015190509250929050565b6000602082840312156119c957600080fd5b5035919050565b600080604083850312156119e357600080fd5b50508035926020909101359150565b60008251611a04818460208701611b31565b9190910192915050565b6001600160a01b0391909116815260200190565b6020815260008251806020840152611a41816040850160208701611b31565b601f01601f19169190910160400192915050565b6020808252601d908201527f4d61726b65743a2065786365656473204c6f616e2d746f2d56616c7565000000604082015260600190565b6020808252818101527f4f776e61626c653a2063616c6c6572206973206e6f7420746865206f776e6572604082015260600190565b60008219821115611ad457611ad4611b5d565b500190565b600082611af657634e487b7160e01b600052601260045260246000fd5b500490565b6000816000190483118215151615611b1557611b15611b5d565b500290565b600082821015611b2c57611b2c611b5d565b500390565b60005b83811015611b4c578181015183820152602001611b34565b8381111561149f5750506000910152565b634e487b7160e01b600052601160045260246000fd5b6001600160a01b038116811461045d57600080fdfe3df77beb5db05fcdd70a30fc8adf3f83f9501b68579455adbd100b81809403947dae230f18360d76a040c81f050aa14eb9d6dc7901b20fc5d855e2a20fe814d105f2eeda0e08e4b437f487c8d7d29b14537d15e3488170dc3de5dbdf8dac46849b1bfa7fa9ee420a16e124f794c35ac9f90472acc99140eb2f6447c714cad8eba26469706673582212200606fc51740cdb94399a417f374d716ae0dd351e3266598e9aa424dd92873b2464736f6c63430008060033",
  "devdoc": {
    "events": {
      "CreateMarket(uint256)": {
        "params": {
          "index": "Index of the current market in `markets` list."
        }
      }
    },
    "kind": "dev",
    "methods": {
      "constructor": {
        "params": {
          "_owner": "Owner of the factory and all markets"
        }
      },
      "createZeroInterestMarket(address,address,address,address,uint256,uint256,uint256)": {
        "params": {
          "_borrowRate": "Rate to calculate flat borrow fee",
          "_collateralToken": "ERC-20 to be deposited as collateral",
          "_debtToken": "ERC-20 to be withdrawn as debt",
          "_liquidationPenalty": "Rate to calculate liquidation penalty",
          "_maxLoanToValue": "Maximum ratio of debt to collateral",
          "_oracle": "Oracle from which to fetch updated collateral/debt token price",
          "_treasury": "the account that receives fees"
        }
      },
      "owner()": {
        "details": "Returns the address of the current owner."
      },
      "renounceOwnership()": {
        "details": "Leaves the contract without owner. It will not be possible to call `onlyOwner` functions anymore. Can only be called by the current owner. NOTE: Renouncing ownership will leave the contract without an owner, thereby removing any functionality that is only available to the owner."
      },
      "transferOwnership(address)": {
        "details": "Transfers ownership of the contract to a new account (`newOwner`). Can only be called by the current owner."
      }
    },
    "version": 1
  },
  "userdoc": {
    "events": {
      "CreateMarket(uint256)": {
        "notice": "New market created"
      }
    },
    "kind": "user",
    "methods": {
      "constructor": {
        "notice": "Create new MarketFactory with an owner"
      },
      "createZeroInterestMarket(address,address,address,address,uint256,uint256,uint256)": {
        "notice": "Create new ZeroInterestMarket owned by this contract's owner"
      }
    },
    "notice": "Factory for Markets*",
    "version": 1
  },
  "storageLayout": {
    "storage": [
      {
        "astId": 7,
        "contract": "contracts/MarketFactory.sol:MarketFactory",
        "label": "_owner",
        "offset": 0,
        "slot": "0",
        "type": "t_address"
      },
      {
        "astId": 2073,
        "contract": "contracts/MarketFactory.sol:MarketFactory",
        "label": "markets",
        "offset": 0,
        "slot": "1",
        "type": "t_array(t_contract(IMarket)3297)dyn_storage"
      },
      {
        "astId": 2076,
        "contract": "contracts/MarketFactory.sol:MarketFactory",
        "label": "zeroInterestMarketImpl",
        "offset": 0,
        "slot": "2",
        "type": "t_contract(ZeroInterestMarket)3133"
      }
    ],
    "types": {
      "t_address": {
        "encoding": "inplace",
        "label": "address",
        "numberOfBytes": "20"
      },
      "t_array(t_contract(IMarket)3297)dyn_storage": {
        "base": "t_contract(IMarket)3297",
        "encoding": "dynamic_array",
        "label": "contract IMarket[]",
        "numberOfBytes": "32"
      },
      "t_contract(IMarket)3297": {
        "encoding": "inplace",
        "label": "contract IMarket",
        "numberOfBytes": "20"
      },
      "t_contract(ZeroInterestMarket)3133": {
        "encoding": "inplace",
        "label": "contract ZeroInterestMarket",
        "numberOfBytes": "20"
      }
    }
  }
}