{
  "address": "0x54acF492f2a9b7DE9E6d1cE27D1502d585a731Eb",
  "abi": [
    {
      "inputs": [
        {
          "internalType": "address",
          "name": "owner_",
          "type": "address"
        }
      ],
      "stateMutability": "nonpayable",
      "type": "constructor"
    },
    {
      "anonymous": false,
      "inputs": [
        {
          "indexed": false,
          "internalType": "uint256",
          "name": "index",
          "type": "uint256"
        }
      ],
      "name": "CreateMarket",
      "type": "event"
    },
    {
      "anonymous": false,
      "inputs": [
        {
          "indexed": true,
          "internalType": "address",
          "name": "previousOwner",
          "type": "address"
        },
        {
          "indexed": true,
          "internalType": "address",
          "name": "newOwner",
          "type": "address"
        }
      ],
      "name": "OwnershipTransferred",
      "type": "event"
    },
    {
      "inputs": [
        {
          "internalType": "address",
          "name": "_treasury",
          "type": "address"
        },
        {
          "internalType": "address",
          "name": "_collateralToken",
          "type": "address"
        },
        {
          "internalType": "address",
          "name": "_debtToken",
          "type": "address"
        },
        {
          "internalType": "address",
          "name": "_oracle",
          "type": "address"
        },
        {
          "internalType": "uint256",
          "name": "_maxLoanToValue",
          "type": "uint256"
        },
        {
          "internalType": "uint256",
          "name": "_borrowRate",
          "type": "uint256"
        },
        {
          "internalType": "uint256",
          "name": "_liquidationPenalty",
          "type": "uint256"
        }
      ],
      "name": "createZeroInterestMarket",
      "outputs": [],
      "stateMutability": "nonpayable",
      "type": "function"
    },
    {
      "inputs": [],
      "name": "getMarkets",
      "outputs": [
        {
          "internalType": "contract IMarket[]",
          "name": "",
          "type": "address[]"
        }
      ],
      "stateMutability": "view",
      "type": "function"
    },
    {
      "inputs": [
        {
          "internalType": "uint256",
          "name": "",
          "type": "uint256"
        }
      ],
      "name": "markets",
      "outputs": [
        {
          "internalType": "contract IMarket",
          "name": "",
          "type": "address"
        }
      ],
      "stateMutability": "view",
      "type": "function"
    },
    {
      "inputs": [],
      "name": "numMarkets",
      "outputs": [
        {
          "internalType": "uint256",
          "name": "",
          "type": "uint256"
        }
      ],
      "stateMutability": "view",
      "type": "function"
    },
    {
      "inputs": [],
      "name": "owner",
      "outputs": [
        {
          "internalType": "address",
          "name": "",
          "type": "address"
        }
      ],
      "stateMutability": "view",
      "type": "function"
    },
    {
      "inputs": [],
      "name": "renounceOwnership",
      "outputs": [],
      "stateMutability": "nonpayable",
      "type": "function"
    },
    {
      "inputs": [
        {
          "internalType": "address",
          "name": "newOwner",
          "type": "address"
        }
      ],
      "name": "transferOwnership",
      "outputs": [],
      "stateMutability": "nonpayable",
      "type": "function"
    }
  ],
  "transactionHash": "0x65340a91e22e7d0280c288bb8393ec4531a60be9b9565cfc40fd2cc0414d9b01",
  "args": [
    "0x403898Ddff450b89e2D96BDDcf763541655FDE8B"
  ],
  "numDeployments": 2,
  "solcInputHash": "cb3f40648db43135a6dda83ae6e19f15",
  "bytecode": "0x608060405234801561001057600080fd5b5060405161282938038061282983398101604081905261002f9161028d565b61003833610165565b6001600160a01b0381166100875760405162461bcd60e51b8152602060048201526011602482015270307830206f776e6572206164647265737360781b60448201526064015b60405180910390fd5b60405161009390610280565b604051809103906000f0801580156100af573d6000803e3d6000fd5b50600280546001600160a01b0319166001600160a01b03929092169182179055604051637403c6cd60e01b81526000600482018190526024820181905260448201819052606482018190526084820181905260a4820181905260c4820181905260e4820152637403c6cd9061010401600060405180830381600087803b15801561013857600080fd5b505af115801561014c573d6000803e3d6000fd5b5050505061015f816101b560201b60201c565b506102bd565b600080546001600160a01b038381166001600160a01b0319831681178455604051919092169283917f8be0079c531659141344cd1fd0a4f28419497f9722a3daafe3b4186f6b6457e09190a35050565b6000546001600160a01b0316331461020f5760405162461bcd60e51b815260206004820181905260248201527f4f776e61626c653a2063616c6c6572206973206e6f7420746865206f776e6572604482015260640161007e565b6001600160a01b0381166102745760405162461bcd60e51b815260206004820152602660248201527f4f776e61626c653a206e6577206f776e657220697320746865207a65726f206160448201526564647265737360d01b606482015260840161007e565b61027d81610165565b50565b611db780610a7283390190565b60006020828403121561029f57600080fd5b81516001600160a01b03811681146102b657600080fd5b9392505050565b6107a6806102cc6000396000f3fe608060405234801561001057600080fd5b506004361061006d5760003560e01c80630839cb331461007257806326e04f9d14610087578063715018a61461009d5780638da5cb5b146100a5578063b1283e77146100c5578063ec2c9016146100d8578063f2fde38b146100ed575b600080fd5b610085610080366004610612565b610100565b005b6001546040519081526020015b60405180910390f35b610085610376565b6100ad6103b1565b6040516001600160a01b039091168152602001610094565b6100ad6100d3366004610681565b6103c0565b6100e06103ea565b604051610094919061069a565b6100856100fb3660046105f0565b61044c565b336101096103b1565b6001600160a01b0316146101385760405162461bcd60e51b815260040161012f90610716565b60405180910390fd5b6001600160a01b0387166101855760405162461bcd60e51b8152602060048201526014602482015273307830207472656173757279206164647265737360601b604482015260640161012f565b6001600160a01b0386166101d95760405162461bcd60e51b815260206004820152601b60248201527a30783020636f6c6c61746572616c546f6b656e206164647265737360281b604482015260640161012f565b6001600160a01b0385166101ff5760405162461bcd60e51b815260040161012f906106e7565b6001600160a01b0384166102255760405162461bcd60e51b815260040161012f906106e7565b60025460009061023d906001600160a01b03166104ec565b9050806001600160a01b0316637403c6cd6102566103b1565b6040516001600160e01b031960e084901b1681526001600160a01b039182166004820152818c166024820152818b166044820152818a166064820152908816608482015260a4810187905260c4810186905260e4810185905261010401600060405180830381600087803b1580156102cd57600080fd5b505af11580156102e1573d6000803e3d6000fd5b505060018054808201825560008290527fb10e2d527612073b26eecdfd717e6a320cf44b4afac2b0732d9fcbe2b7fa0cf60180546001600160a01b0319166001600160a01b03861617905580547f26ced030b552a3d773aa10fcde5b2ffe14f6c18e773de0a51e9b27159c2efad0935061035b925061074b565b60405190815260200160405180910390a15050505050505050565b3361037f6103b1565b6001600160a01b0316146103a55760405162461bcd60e51b815260040161012f90610716565b6103af6000610589565b565b6000546001600160a01b031690565b600181815481106103d057600080fd5b6000918252602090912001546001600160a01b0316905081565b6060600180548060200260200160405190810160405280929190818152602001828054801561044257602002820191906000526020600020905b81546001600160a01b03168152600190910190602001808311610424575b5050505050905090565b336104556103b1565b6001600160a01b03161461047b5760405162461bcd60e51b815260040161012f90610716565b6001600160a01b0381166104e05760405162461bcd60e51b815260206004820152602660248201527f4f776e61626c653a206e6577206f776e657220697320746865207a65726f206160448201526564647265737360d01b606482015260840161012f565b6104e981610589565b50565b6000604051733d602d80600a3d3981f3363d3d373d3d3d363d7360601b81528260601b60148201526e5af43d82803e903d91602b57fd5bf360881b60288201526037816000f09150506001600160a01b0381166105845760405162461bcd60e51b8152602060048201526016602482015275115490cc4c4d8dce8818dc99585d194819985a5b195960521b604482015260640161012f565b919050565b600080546001600160a01b038381166001600160a01b0319831681178455604051919092169283917f8be0079c531659141344cd1fd0a4f28419497f9722a3daafe3b4186f6b6457e09190a35050565b80356001600160a01b038116811461058457600080fd5b60006020828403121561060257600080fd5b61060b826105d9565b9392505050565b600080600080600080600060e0888a03121561062d57600080fd5b610636886105d9565b9650610644602089016105d9565b9550610652604089016105d9565b9450610660606089016105d9565b9699959850939660808101359560a0820135955060c0909101359350915050565b60006020828403121561069357600080fd5b5035919050565b6020808252825182820181905260009190848201906040850190845b818110156106db5783516001600160a01b0316835292840192918401916001016106b6565b50909695505050505050565b6020808252601590820152743078302064656274546f6b656e206164647265737360581b604082015260600190565b6020808252818101527f4f776e61626c653a2063616c6c6572206973206e6f7420746865206f776e6572604082015260600190565b60008282101561076b57634e487b7160e01b600052601160045260246000fd5b50039056fea2646970667358221220555020514cebdc59a240cd2055302e24b0501dfb4c79854df0e0bcf7d0573c5464736f6c63430008060033608060405234801561001057600080fd5b5061001a3361002c565b6000805460ff60b01b1916905561007c565b600080546001600160a01b038381166001600160a01b0319831681178455604051919092169283917f8be0079c531659141344cd1fd0a4f28419497f9722a3daafe3b4186f6b6457e09190a35050565b611d2c8061008b6000396000f3fe608060405234801561001057600080fd5b50600436106101cd5760003560e01c8063053f14da146101d2578063138cc18f146101ee57806315cc11ad146101f857806316c38b3c1461020157806316fa77ab14610214578063187898ce1461022757806322867d781461023057806323f5589a14610243578063408ace821461024c57806347e7ef241461026f5780634ac8eb5f146102825780634b8a35291461028b5780635c975abb1461029e57806361d027b3146102a6578063673a7e28146102c6578063715018a6146102ce5780637403c6cd146102d657806377f01edd146102e95780637dc0d1d0146102f35780637dd5fd231461030657806380623444146103155780638980f11f146103285780638da5cb5b1461033b578063a2284b9e146102e9578063b2016bd414610343578063b69e5c7714610356578063b75061bb14610376578063c42c6e3b146102e9578063c914b43714610389578063e2d3786f14610392578063ebc9b94d146103a5578063ed5611fb146103b8578063f071db5a146103c1578063f0f44260146103ca578063f2fde38b146103dd578063f3fef3a3146103f0578063f69f1e4a14610403578063f8d8989814610423578063fc7b9c1814610436575b600080fd5b6101db60055481565b6040519081526020015b60405180910390f35b6101f661043f565b005b6101db60065481565b6101f661020f366004611a25565b6104c9565b6101db6102223660046118d6565b61050e565b6101db610e1081565b6101f661023e36600461199a565b6105c9565b6101db600a5481565b61025f61025a3660046118d6565b6106e8565b60405190151581526020016101e5565b6101f661027d36600461199a565b6106fe565b6101db600d5481565b6101f661029936600461199a565b6107c6565b61025f6108f6565b6001546102b9906001600160a01b031681565b6040516101e59190611ae4565b6101db610906565b6101f6610917565b6101f66102e4366004611910565b610952565b6101db620186a081565b6004546102b9906001600160a01b031681565b6101db670de0b6b3a764000081565b6101f6610323366004611a8d565b610aad565b6101f661033636600461199a565b610b63565b6102b9610c63565b6002546102b9906001600160a01b031681565b6101db6103643660046118d6565b600c6020526000908152604090205481565b6101f6610384366004611aa6565b610c72565b6101db60095481565b6101f66103a03660046119c6565b610c86565b6101f66103b3366004611aa6565b6110c1565b6101db60085481565b6101db60075481565b6101f66103d83660046118d6565b6110d5565b6101f66103eb3660046118d6565b61119d565b6101f66103fe36600461199a565b61123a565b6101db6104113660046118d6565b600b6020526000908152604090205481565b6003546102b9906001600160a01b031681565b6101db600e5481565b6104476108f6565b1561046d5760405162461bcd60e51b815260040161046490611b62565b60405180910390fd5b6007805460009091556040518181527ffe8981e94194cbbb8c05bbe9e35d5efd344dea70889a90ca458fd7da74672ec99060200160405180910390a16001546003546104c6916001600160a01b03918216911683611366565b50565b336104d2610c63565b6001600160a01b0316146104f85760405162461bcd60e51b815260040161046490611b8c565b8015610506576104c66113ce565b6104c6611445565b6001600160a01b0381166000908152600c602052604081205461053357506000919050565b6001600160a01b0382166000908152600b60205260409020546105595750600019919050565b6005546001600160a01b0383166000908152600b6020526040902054670de0b6b3a76400009161058891611bfb565b6105929190611bd9565b6001600160a01b0383166000908152600c60205260409020546105b990620186a090611bfb565b6105c39190611bd9565b92915050565b6105d16108f6565b156105ee5760405162461bcd60e51b815260040161046490611b62565b6001600160a01b0382166000908152600c60205260409020548111156106535760405162461bcd60e51b815260206004820152601a60248201527913585c9ad95d0e881c995c185e48195e18d959591cc81919589d60321b6044820152606401610464565b80600e546106619190611c1a565b600e556001600160a01b0382166000908152600c6020526040902054610688908290611c1a565b6001600160a01b038084166000908152600c60205260409020919091556003546106b591163330846114c4565b6040518181526001600160a01b038316903390600080516020611cb7833981519152906020015b60405180910390a35050565b60006008546106f68361050e565b111592915050565b6107066108f6565b156107235760405162461bcd60e51b815260040161046490611b62565b6001600160a01b0382166000908152600b6020526040902054610747908290611bc1565b6001600160a01b0383166000908152600b6020526040902055600d5461076e908290611bc1565b600d55600254610789906001600160a01b03163330846114c4565b6040518181526001600160a01b0383169033907f5548c837ab068cf56a2c2479df0882a4922fd203edb7517321831d95078c5f62906020016106dc565b6107ce6108f6565b156107eb5760405162461bcd60e51b815260040161046490611b62565b6107f560016114fc565b506000620186a06009548361080a9190611bfb565b6108149190611bd9565b905060006108228284611bc1565b905080600e546108329190611bc1565b600e55336000908152600c6020526040902054610850908290611bc1565b336000818152600c602052604090209190915561086c906106e8565b6108885760405162461bcd60e51b815260040161046490611b2b565b816007546108969190611bc1565b6007556040518181526001600160a01b0385169033907f312a5e5e1079f5dda4e95dbbd0b908b291fd5b992ef22073643ab691572c5b529060200160405180910390a36003546108f0906001600160a01b03168585611366565b50505050565b600054600160b01b900460ff1690565b600061091260006114fc565b905090565b33610920610c63565b6001600160a01b0316146109465760405162461bcd60e51b815260040161046490611b8c565b61095060006115ea565b565b600054600160a81b900460ff1661097657600054600160a01b900460ff161561097a565b303b155b6109dd5760405162461bcd60e51b815260206004820152602e60248201527f496e697469616c697a61626c653a20636f6e747261637420697320616c72656160448201526d191e481a5b9a5d1a585b1a5e995960921b6064820152608401610464565b600054600160a81b900460ff16158015610a07576000805461ffff60a01b191661010160a01b1790555b600180546001600160a01b03808b166001600160a01b031992831617909255600280548a841690831617905560038054898416908316179055600480549288169290911691909117905560088490556009839055600a829055610a69896115ea565b600080516020611c9783398151915288604051610a869190611ae4565b60405180910390a18015610aa2576000805460ff60a81b191690555b505050505050505050565b33610ab6610c63565b6001600160a01b031614610adc5760405162461bcd60e51b815260040161046490611b8c565b6104c6306001600160a01b0316638da5cb5b6040518163ffffffff1660e01b815260040160206040518083038186803b158015610b1857600080fd5b505afa158015610b2c573d6000803e3d6000fd5b505050506040513d601f19601f82011682018060405250810190610b5091906118f3565b6003546001600160a01b03169083611366565b33610b6c610c63565b6001600160a01b031614610b925760405162461bcd60e51b815260040161046490611b8c565b6003546001600160a01b0383811691161415610bed5760405162461bcd60e51b815260206004820152601a60248201527943616e6e6f74207265636f766572206465627420746f6b656e7360301b6044820152606401610464565b6002546001600160a01b0383811691161415610c4b5760405162461bcd60e51b815260206004820181905260248201527f43616e6e6f74207265636f76657220636f6c6c61746572616c20746f6b656e736044820152606401610464565b610c5f6001600160a01b0383163383611366565b5050565b6000546001600160a01b031690565b610c7c33836106fe565b610c5f33826107c6565b610c8e6108f6565b15610cab5760405162461bcd60e51b815260040161046490611b62565b336001600160a01b0386161415610d045760405162461bcd60e51b815260206004820152601d60248201527f4d61726b65743a2063616e6e6f74206c69717569646174652073656c660000006044820152606401610464565b6000610d1060016114fc565b9050610d1b866106e8565b15610d5f5760405162461bcd60e51b815260206004820152601460248201527313585c9ad95d0e881d5cd95c881cdbdb1d995b9d60621b6044820152606401610464565b6001600160a01b0386166000908152600b6020526040812054670de0b6b3a764000090610d8d908490611bfb565b610d979190611bd9565b90506000620186a0600a54620186a0610db09190611c1a565b610dba9084611bfb565b610dc49190611bd9565b6001600160a01b0389166000908152600c6020526040812054919250908811610ded5787610e07565b6001600160a01b0389166000908152600c60205260409020545b9050600081831015610e355750506001600160a01b0388166000908152600b60205260409020548190610e55565b82610e48670de0b6b3a764000084611bfb565b610e529190611bd9565b90505b87811015610ea25760405162461bcd60e51b815260206004820152601a60248201527965786365737320636f6c6c61746572616c20736c69707061676560301b6044820152606401610464565b6001600160a01b038a166000908152600b6020526040902054610ec6908290611c1a565b6001600160a01b038b166000908152600b6020526040902055600d54610eed908290611c1a565b600d556001600160a01b038a166000908152600c6020526040902054610f14908390611c1a565b6001600160a01b038b166000908152600c6020526040902055600e54610f3b908390611c1a565b600e556040518281526001600160a01b038b16903390600080516020611cb78339815191529060200160405180910390a3866001600160a01b03168a6001600160a01b0316600080516020611cd783398151915283604051610f9f91815260200190565b60405180910390a360408051838152602081018390529081018690526001600160a01b0380891691908c16907f642dd4d37ddd32036b9797cec464c0045dd2118c549066ae6b0f88e32240c2d09060600160405180910390a360025461100f906001600160a01b03168883611366565b6001600160a01b0386161561109d576002546003546040516371a1ff0960e11b81526001600160a01b039283166004820152908216602482015233604482015260648101849052608481018390529087169063e343fe129060a401600060405180830381600087803b15801561108457600080fd5b505af1158015611098573d6000803e3d6000fd5b505050505b6003546110b5906001600160a01b03163330856114c4565b50505050505050505050565b6110cb33836105c9565b610c5f338261123a565b336110de610c63565b6001600160a01b0316146111045760405162461bcd60e51b815260040161046490611b8c565b6001600160a01b0381166111595760405162461bcd60e51b815260206004820152601c60248201527b4d61726b65743a20307830207472656173757279206164647265737360201b6044820152606401610464565b600180546001600160a01b0319166001600160a01b038316179055604051600080516020611c9783398151915290611192908390611ae4565b60405180910390a150565b336111a6610c63565b6001600160a01b0316146111cc5760405162461bcd60e51b815260040161046490611b8c565b6001600160a01b0381166112315760405162461bcd60e51b815260206004820152602660248201527f4f776e61626c653a206e6577206f776e657220697320746865207a65726f206160448201526564647265737360d01b6064820152608401610464565b6104c6816115ea565b6112426108f6565b1561125f5760405162461bcd60e51b815260040161046490611b62565b336000908152600b60205260409020548111156112b95760405162461bcd60e51b81526020600482015260186024820152774d61726b65743a20616d6f756e7420746f6f206c6172676560401b6044820152606401610464565b6112c360016114fc565b50336000908152600b60205260409020546112df908290611c1a565b336000908152600b6020526040902055600d546112fd908290611c1a565b600d55611309336106e8565b6113255760405162461bcd60e51b815260040161046490611b2b565b6040518181526001600160a01b038316903390600080516020611cd78339815191529060200160405180910390a3600254610c5f906001600160a01b031683835b6040516001600160a01b0383166024820152604481018290526113c990849063a9059cbb60e01b906064015b60408051601f198184030181529190526020810180516001600160e01b03166001600160e01b03199093169290921790915261163a565b505050565b6113d66108f6565b156113f35760405162461bcd60e51b815260040161046490611b62565b6000805460ff60b01b1916600160b01b1790557f62e78cea01bee320cd4e420270b5ea74000d11b0c9f74754ebdbfc544b05a25861142e3390565b60405161143b9190611ae4565b60405180910390a1565b61144d6108f6565b6114905760405162461bcd60e51b815260206004820152601460248201527314185d5cd8589b194e881b9bdd081c185d5cd95960621b6044820152606401610464565b6000805460ff60b01b191690557f5db9ee0a495bf2e6ff9c91a7834c1ba4fdd244a5e8aa4e537bd38aeae4b073aa3361142e565b6040516001600160a01b03808516602483015283166044820152606481018290526108f09085906323b872dd60e01b90608401611392565b6000806000600460009054906101000a90046001600160a01b03166001600160a01b0316630fdb11cf6040518163ffffffff1660e01b8152600401604080518083038186803b15801561154e57600080fd5b505afa158015611562573d6000803e3d6000fd5b505050506040513d601f19601f820116820180604052508101906115869190611a5f565b9150915081156115d1576005819055426006556040518181527fdf34c43531609ffbe660deb5fa18df5e7f0c358bfdb3d5ff0518fd1dfc38cc889060200160405180910390a16115df565b83156115df576115df61170c565b505060055492915050565b600080546001600160a01b038381166001600160a01b0319831681178455604051919092169283917f8be0079c531659141344cd1fd0a4f28419497f9722a3daafe3b4186f6b6457e09190a35050565b600061168f826040518060400160405280602081526020017f5361666545524332303a206c6f772d6c6576656c2063616c6c206661696c6564815250856001600160a01b031661175c9092919063ffffffff16565b8051909150156113c957808060200190518101906116ad9190611a42565b6113c95760405162461bcd60e51b815260206004820152602a60248201527f5361666545524332303a204552433230206f7065726174696f6e20646964206e6044820152691bdd081cdd58d8d9595960b21b6064820152608401610464565b610e106006544261171d9190611c1a565b11156109505760405162461bcd60e51b815260206004820152600e60248201526d26b0b935b2ba1d10333937bd32b760911b6044820152606401610464565b606061176b8484600085611775565b90505b9392505050565b6060824710156117d65760405162461bcd60e51b815260206004820152602660248201527f416464726573733a20696e73756666696369656e742062616c616e636520666f6044820152651c8818d85b1b60d21b6064820152608401610464565b843b6118245760405162461bcd60e51b815260206004820152601d60248201527f416464726573733a2063616c6c20746f206e6f6e2d636f6e74726163740000006044820152606401610464565b600080866001600160a01b031685876040516118409190611ac8565b60006040518083038185875af1925050503d806000811461187d576040519150601f19603f3d011682016040523d82523d6000602084013e611882565b606091505b509150915061189282828661189d565b979650505050505050565b606083156118ac57508161176e565b8251156118bc5782518084602001fd5b8160405162461bcd60e51b81526004016104649190611af8565b6000602082840312156118e857600080fd5b813561176e81611c73565b60006020828403121561190557600080fd5b815161176e81611c73565b600080600080600080600080610100898b03121561192d57600080fd5b883561193881611c73565b9750602089013561194881611c73565b9650604089013561195881611c73565b9550606089013561196881611c73565b9450608089013561197881611c73565b979a969950949793969560a0850135955060c08501359460e001359350915050565b600080604083850312156119ad57600080fd5b82356119b881611c73565b946020939093013593505050565b600080600080600060a086880312156119de57600080fd5b85356119e981611c73565b945060208601359350604086013592506060860135611a0781611c73565b91506080860135611a1781611c73565b809150509295509295909350565b600060208284031215611a3757600080fd5b813561176e81611c88565b600060208284031215611a5457600080fd5b815161176e81611c88565b60008060408385031215611a7257600080fd5b8251611a7d81611c88565b6020939093015192949293505050565b600060208284031215611a9f57600080fd5b5035919050565b60008060408385031215611ab957600080fd5b50508035926020909101359150565b60008251611ada818460208701611c31565b9190910192915050565b6001600160a01b0391909116815260200190565b6020815260008251806020840152611b17816040850160208701611c31565b601f01601f19169190910160400192915050565b6020808252601d908201527f4d61726b65743a2065786365656473204c6f616e2d746f2d56616c7565000000604082015260600190565b60208082526010908201526f14185d5cd8589b194e881c185d5cd95960821b604082015260600190565b6020808252818101527f4f776e61626c653a2063616c6c6572206973206e6f7420746865206f776e6572604082015260600190565b60008219821115611bd457611bd4611c5d565b500190565b600082611bf657634e487b7160e01b600052601260045260246000fd5b500490565b6000816000190483118215151615611c1557611c15611c5d565b500290565b600082821015611c2c57611c2c611c5d565b500390565b60005b83811015611c4c578181015183820152602001611c34565b838111156108f05750506000910152565b634e487b7160e01b600052601160045260246000fd5b6001600160a01b03811681146104c657600080fd5b80151581146104c657600080fdfe7dae230f18360d76a040c81f050aa14eb9d6dc7901b20fc5d855e2a20fe814d105f2eeda0e08e4b437f487c8d7d29b14537d15e3488170dc3de5dbdf8dac46849b1bfa7fa9ee420a16e124f794c35ac9f90472acc99140eb2f6447c714cad8eba2646970667358221220e398408202a17ea0227774d5a2bdf99b91063a8b94d0597db9e8daacbdb2c36264736f6c63430008060033",
  "devdoc": {
    "events": {
      "CreateMarket(uint256)": {
        "params": {
          "index": "Index of the current market in `markets` list."
        }
      }
    },
    "kind": "dev",
    "methods": {
      "constructor": {
        "params": {
          "owner_": "Owner of the factory and all markets"
        }
      },
      "createZeroInterestMarket(address,address,address,address,uint256,uint256,uint256)": {
        "params": {
          "_borrowRate": "Rate to calculate flat borrow fee",
          "_collateralToken": "ERC-20 to be deposited as collateral",
          "_debtToken": "ERC-20 to be withdrawn as debt",
          "_liquidationPenalty": "Rate to calculate liquidation penalty",
          "_maxLoanToValue": "Maximum ratio of debt to collateral",
          "_oracle": "Oracle from which to fetch updated collateral/debt token price",
          "_treasury": "the account that receives fees"
        }
      },
      "owner()": {
        "details": "Returns the address of the current owner."
      },
      "renounceOwnership()": {
        "details": "Leaves the contract without owner. It will not be possible to call `onlyOwner` functions anymore. Can only be called by the current owner. NOTE: Renouncing ownership will leave the contract without an owner, thereby removing any functionality that is only available to the owner."
      },
      "transferOwnership(address)": {
        "details": "Transfers ownership of the contract to a new account (`newOwner`). Can only be called by the current owner."
      }
    },
    "version": 1
  },
  "userdoc": {
    "events": {
      "CreateMarket(uint256)": {
        "notice": "New market created"
      }
    },
    "kind": "user",
    "methods": {
      "constructor": {
        "notice": "Create new MarketFactory with an owner"
      },
      "createZeroInterestMarket(address,address,address,address,uint256,uint256,uint256)": {
        "notice": "Create new ZeroInterestMarket owned by this contract's owner"
      }
    },
    "notice": "Factory for Markets*",
    "version": 1
  },
  "storageLayout": {
    "storage": [
      {
        "astId": 7,
        "contract": "contracts/MarketFactory.sol:MarketFactory",
        "label": "_owner",
        "offset": 0,
        "slot": "0",
        "type": "t_address"
      },
      {
        "astId": 3824,
        "contract": "contracts/MarketFactory.sol:MarketFactory",
        "label": "markets",
        "offset": 0,
        "slot": "1",
        "type": "t_array(t_contract(IMarket)5594)dyn_storage"
      },
      {
        "astId": 3827,
        "contract": "contracts/MarketFactory.sol:MarketFactory",
        "label": "zeroInterestMarketImpl",
        "offset": 0,
        "slot": "2",
        "type": "t_contract(ZeroInterestMarket)5428"
      }
    ],
    "types": {
      "t_address": {
        "encoding": "inplace",
        "label": "address",
        "numberOfBytes": "20"
      },
      "t_array(t_contract(IMarket)5594)dyn_storage": {
        "base": "t_contract(IMarket)5594",
        "encoding": "dynamic_array",
        "label": "contract IMarket[]",
        "numberOfBytes": "32"
      },
      "t_contract(IMarket)5594": {
        "encoding": "inplace",
        "label": "contract IMarket",
        "numberOfBytes": "20"
      },
      "t_contract(ZeroInterestMarket)5428": {
        "encoding": "inplace",
        "label": "contract ZeroInterestMarket",
        "numberOfBytes": "20"
      }
    }
  }
}