{
  "address": "0x68F5e8B14719aABd16E246B73faa553e73254EA6",
  "abi": [
    {
      "inputs": [],
      "name": "fetchPrice",
      "outputs": [
        {
          "internalType": "bool",
          "name": "",
          "type": "bool"
        },
        {
          "internalType": "uint256",
          "name": "",
          "type": "uint256"
        }
      ],
      "stateMutability": "view",
      "type": "function"
    },
    {
      "inputs": [],
      "name": "price",
      "outputs": [
        {
          "internalType": "uint256",
          "name": "",
          "type": "uint256"
        }
      ],
      "stateMutability": "view",
      "type": "function"
    },
    {
      "inputs": [
        {
          "internalType": "uint256",
          "name": "_price",
          "type": "uint256"
        }
      ],
      "name": "setPrice",
      "outputs": [],
      "stateMutability": "nonpayable",
      "type": "function"
    }
  ],
  "transactionHash": "0xbb4a4b2b67d9da29e0a5a8198e69ea9d19cd8ef9b3c89bd6f44516639da11090",
  "args": [],
  "numDeployments": 1,
  "solcInputHash": "cb3f40648db43135a6dda83ae6e19f15",
  "bytecode": "0x608060405234801561001057600080fd5b5060dc8061001f6000396000f3fe6080604052348015600f57600080fd5b5060043610603c5760003560e01c80630fdb11cf14604157806391b7f5ed146067578063a035b1fe146079575b600080fd5b604b600054600191565b6040805192151583526020830191909152015b60405180910390f35b60776072366004608e565b600055565b005b608160005481565b604051908152602001605e565b600060208284031215609f57600080fd5b503591905056fea26469706673582212201921740e3ebb4a908723475b3ba26d715d7ee20e3bda6e370e33a085168bd88864736f6c63430008060033",
  "devdoc": {
    "kind": "dev",
    "methods": {},
    "version": 1
  },
  "userdoc": {
    "kind": "user",
    "methods": {},
    "version": 1
  },
  "storageLayout": {
    "storage": [
      {
        "astId": 7851,
        "contract": "contracts/stubs/StubOracle.sol:StubOracle",
        "label": "price",
        "offset": 0,
        "slot": "0",
        "type": "t_uint256"
      }
    ],
    "types": {
      "t_uint256": {
        "encoding": "inplace",
        "label": "uint256",
        "numberOfBytes": "32"
      }
    }
  }
}