{
  "address": "0xB720172705020e8091F9cCa13Ef5E7d3fB9EC4Ee",
  "abi": [
    {
      "inputs": [
        {
          "internalType": "uint8",
          "name": "_decimals",
          "type": "uint8"
        },
        {
          "internalType": "string",
          "name": "_description",
          "type": "string"
        },
        {
          "internalType": "uint256",
          "name": "_version",
          "type": "uint256"
        },
        {
          "internalType": "int256",
          "name": "_answer",
          "type": "int256"
        }
      ],
      "stateMutability": "nonpayable",
      "type": "constructor"
    },
    {
      "inputs": [],
      "name": "decimals",
      "outputs": [
        {
          "internalType": "uint8",
          "name": "",
          "type": "uint8"
        }
      ],
      "stateMutability": "view",
      "type": "function"
    },
    {
      "inputs": [],
      "name": "description",
      "outputs": [
        {
          "internalType": "string",
          "name": "",
          "type": "string"
        }
      ],
      "stateMutability": "view",
      "type": "function"
    },
    {
      "inputs": [
        {
          "internalType": "uint80",
          "name": "_roundId",
          "type": "uint80"
        }
      ],
      "name": "getRoundData",
      "outputs": [
        {
          "internalType": "uint80",
          "name": "roundId",
          "type": "uint80"
        },
        {
          "internalType": "int256",
          "name": "answer_",
          "type": "int256"
        },
        {
          "internalType": "uint256",
          "name": "startedAt",
          "type": "uint256"
        },
        {
          "internalType": "uint256",
          "name": "updatedAt",
          "type": "uint256"
        },
        {
          "internalType": "uint80",
          "name": "answeredInRound",
          "type": "uint80"
        }
      ],
      "stateMutability": "view",
      "type": "function"
    },
    {
      "inputs": [],
      "name": "latestRoundData",
      "outputs": [
        {
          "internalType": "uint80",
          "name": "roundId",
          "type": "uint80"
        },
        {
          "internalType": "int256",
          "name": "answer_",
          "type": "int256"
        },
        {
          "internalType": "uint256",
          "name": "startedAt",
          "type": "uint256"
        },
        {
          "internalType": "uint256",
          "name": "updatedAt",
          "type": "uint256"
        },
        {
          "internalType": "uint80",
          "name": "answeredInRound",
          "type": "uint80"
        }
      ],
      "stateMutability": "view",
      "type": "function"
    },
    {
      "inputs": [],
      "name": "noData",
      "outputs": [
        {
          "internalType": "bool",
          "name": "",
          "type": "bool"
        }
      ],
      "stateMutability": "view",
      "type": "function"
    },
    {
      "inputs": [
        {
          "internalType": "int256",
          "name": "_answer",
          "type": "int256"
        }
      ],
      "name": "setAnswer",
      "outputs": [],
      "stateMutability": "nonpayable",
      "type": "function"
    },
    {
      "inputs": [],
      "name": "toggleNoData",
      "outputs": [],
      "stateMutability": "nonpayable",
      "type": "function"
    },
    {
      "inputs": [],
      "name": "version",
      "outputs": [
        {
          "internalType": "uint256",
          "name": "",
          "type": "uint256"
        }
      ],
      "stateMutability": "view",
      "type": "function"
    }
  ],
  "transactionHash": "0xf25e9475668f2679ddfd0ce0dab6d81fb703d6d838b4c25453b5a8134c9e4048",
  "args": [
    18,
    "OHMv2 / ETH",
    4,
    "65632235192786370"
  ],
  "numDeployments": 1,
  "solcInputHash": "c71c38bb9b435a616663ed98f0058d11",
  "bytecode": "0x60806040526004805460ff1916905534801561001a57600080fd5b5060405161061838038061061883398101604081905261003991610106565b6000805460ff191660ff8616179055825161005b90600190602086019061006d565b50600291909155600355506102519050565b82805461007990610200565b90600052602060002090601f01602090048101928261009b57600085556100e1565b82601f106100b457805160ff19168380011785556100e1565b828001600101855582156100e1579182015b828111156100e15782518255916020019190600101906100c6565b506100ed9291506100f1565b5090565b5b808211156100ed57600081556001016100f2565b6000806000806080858703121561011c57600080fd5b845160ff8116811461012d57600080fd5b602086810151919550906001600160401b038082111561014c57600080fd5b818801915088601f83011261016057600080fd5b8151818111156101725761017261023b565b604051601f8201601f19908116603f0116810190838211818310171561019a5761019a61023b565b816040528281528b868487010111156101b257600080fd5b600093505b828410156101d457848401860151818501870152928501926101b7565b828411156101e55760008684830101525b60408b01516060909b0151999c909b50975050505050505050565b600181811c9082168061021457607f821691505b6020821081141561023557634e487b7160e01b600052602260045260246000fd5b50919050565b634e487b7160e01b600052604160045260246000fd5b6103b8806102606000396000f3fe608060405234801561001057600080fd5b50600436106100785760003560e01c8063313ce5671461007d57806354fd4d50146100a15780635a070485146100b85780637284e416146100d1578063808c5fd7146100e657806399213cd8146101035780639a6fc8f514610116578063feaf968c1461015d575b600080fd5b60005461008a9060ff1681565b60405160ff90911681526020015b60405180910390f35b6100aa60025481565b604051908152602001610098565b6100cf6004805460ff19811660ff90911615179055565b005b6100d9610165565b60405161009891906102c9565b6004546100f39060ff1681565b6040519015158152602001610098565b6100cf610111366004610280565b600355565b610129610124366004610299565b6101f3565b604080516001600160501b03968716815260208101959095528401929092526060830152909116608082015260a001610098565b61012961023d565b6001805461017290610347565b80601f016020809104026020016040519081016040528092919081815260200182805461019e90610347565b80156101eb5780601f106101c0576101008083540402835291602001916101eb565b820191906000526020600020905b8154815290600101906020018083116101ce57829003601f168201915b505050505081565b600454600090819081908190819060ff161561022a5760405162461bcd60e51b81526004016102219061031e565b60405180910390fd5b5050600354939442935083925060009150565b600454600090819081908190819060ff161561026b5760405162461bcd60e51b81526004016102219061031e565b50506003546000949093504292508291508490565b60006020828403121561029257600080fd5b5035919050565b6000602082840312156102ab57600080fd5b81356001600160501b03811681146102c257600080fd5b9392505050565b600060208083528351808285015260005b818110156102f6578581018301518582016040015282016102da565b81811115610308576000604083870101525b50601f01601f1916929092016040019392505050565b6020808252600f908201526e139bc819185d18481c1c995cd95b9d608a1b604082015260600190565b600181811c9082168061035b57607f821691505b6020821081141561037c57634e487b7160e01b600052602260045260246000fd5b5091905056fea2646970667358221220b5b71f9625eede49284a5109401fda05488871888cbf85e3efff21cdb5329c9564736f6c63430008060033",
  "devdoc": {
    "kind": "dev",
    "methods": {},
    "version": 1
  },
  "userdoc": {
    "kind": "user",
    "methods": {},
    "version": 1
  },
  "storageLayout": {
    "storage": [
      {
        "astId": 7959,
        "contract": "contracts/testing/StubAggregator.sol:StubAggregator",
        "label": "decimals",
        "offset": 0,
        "slot": "0",
        "type": "t_uint8"
      },
      {
        "astId": 7962,
        "contract": "contracts/testing/StubAggregator.sol:StubAggregator",
        "label": "description",
        "offset": 0,
        "slot": "1",
        "type": "t_string_storage"
      },
      {
        "astId": 7965,
        "contract": "contracts/testing/StubAggregator.sol:StubAggregator",
        "label": "version",
        "offset": 0,
        "slot": "2",
        "type": "t_uint256"
      },
      {
        "astId": 7967,
        "contract": "contracts/testing/StubAggregator.sol:StubAggregator",
        "label": "answer",
        "offset": 0,
        "slot": "3",
        "type": "t_int256"
      },
      {
        "astId": 7970,
        "contract": "contracts/testing/StubAggregator.sol:StubAggregator",
        "label": "noData",
        "offset": 0,
        "slot": "4",
        "type": "t_bool"
      }
    ],
    "types": {
      "t_bool": {
        "encoding": "inplace",
        "label": "bool",
        "numberOfBytes": "1"
      },
      "t_int256": {
        "encoding": "inplace",
        "label": "int256",
        "numberOfBytes": "32"
      },
      "t_string_storage": {
        "encoding": "bytes",
        "label": "string",
        "numberOfBytes": "32"
      },
      "t_uint256": {
        "encoding": "inplace",
        "label": "uint256",
        "numberOfBytes": "32"
      },
      "t_uint8": {
        "encoding": "inplace",
        "label": "uint8",
        "numberOfBytes": "1"
      }
    }
  }
}