{
  "address": "0xBAbcD0B8a53ACcf632F3Fe8F48f51063E167d28A",
  "abi": [
    {
      "inputs": [],
      "name": "fetchPrice",
      "outputs": [
        {
          "internalType": "bool",
          "name": "",
          "type": "bool"
        },
        {
          "internalType": "uint256",
          "name": "",
          "type": "uint256"
        }
      ],
      "stateMutability": "view",
      "type": "function"
    },
    {
      "inputs": [],
      "name": "price",
      "outputs": [
        {
          "internalType": "uint256",
          "name": "",
          "type": "uint256"
        }
      ],
      "stateMutability": "view",
      "type": "function"
    },
    {
      "inputs": [
        {
          "internalType": "uint256",
          "name": "_price",
          "type": "uint256"
        }
      ],
      "name": "setPrice",
      "outputs": [],
      "stateMutability": "nonpayable",
      "type": "function"
    }
  ],
  "transactionHash": "0x265c3541b0db5a8f5f2e330bc9fae38f828f6b04ec4b1ae8236b61bbb29e81ec",
  "args": [],
  "numDeployments": 1,
  "solcInputHash": "77cd55a4f4109bc94cff95c2ae08a719",
  "bytecode": "0x608060405234801561001057600080fd5b5060dc8061001f6000396000f3fe6080604052348015600f57600080fd5b5060043610603c5760003560e01c80630fdb11cf14604157806391b7f5ed146067578063a035b1fe146079575b600080fd5b604b600054600191565b6040805192151583526020830191909152015b60405180910390f35b60776072366004608e565b600055565b005b608160005481565b604051908152602001605e565b600060208284031215609f57600080fd5b503591905056fea2646970667358221220b9e1a2c6e7433becf130fa9dda2bc6b00ba089c3cd6d5ad70434d96d5548145f64736f6c63430008060033",
  "devdoc": {
    "kind": "dev",
    "methods": {},
    "version": 1
  },
  "userdoc": {
    "kind": "user",
    "methods": {},
    "version": 1
  },
  "storageLayout": {
    "storage": [
      {
        "astId": 7858,
        "contract": "contracts/stubs/StubOracle.sol:StubOracle",
        "label": "price",
        "offset": 0,
        "slot": "0",
        "type": "t_uint256"
      }
    ],
    "types": {
      "t_uint256": {
        "encoding": "inplace",
        "label": "uint256",
        "numberOfBytes": "32"
      }
    }
  }
}